{
  "contractName": "FraudDetection",
  "abi": [
    {
      "inputs": [],
      "stateMutability": "nonpayable",
      "type": "constructor"
    },
    {
      "anonymous": false,
      "inputs": [
        {
          "indexed": true,
          "internalType": "uint256",
          "name": "fraudId",
          "type": "uint256"
        },
        {
          "indexed": false,
          "internalType": "uint256",
          "name": "transactionId",
          "type": "uint256"
        },
        {
          "indexed": false,
          "internalType": "address",
          "name": "reported",
          "type": "address"
        },
        {
          "indexed": false,
          "internalType": "string",
          "name": "fraudType",
          "type": "string"
        },
        {
          "indexed": false,
          "internalType": "uint256",
          "name": "timestamp",
          "type": "uint256"
        },
        {
          "indexed": false,
          "internalType": "string",
          "name": "details",
          "type": "string"
        },
        {
          "indexed": false,
          "internalType": "address",
          "name": "reportedBy",
          "type": "address"
        },
        {
          "indexed": false,
          "internalType": "bool",
          "name": "isChecked",
          "type": "bool"
        }
      ],
      "name": "FraudDetected",
      "type": "event"
    },
    {
      "inputs": [],
      "name": "fraudCount",
      "outputs": [
        {
          "internalType": "uint256",
          "name": "",
          "type": "uint256"
        }
      ],
      "stateMutability": "view",
      "type": "function"
    },
    {
      "inputs": [
        {
          "internalType": "uint256",
          "name": "",
          "type": "uint256"
        }
      ],
      "name": "frauds",
      "outputs": [
        {
          "internalType": "uint256",
          "name": "fraudId",
          "type": "uint256"
        },
        {
          "internalType": "uint256",
          "name": "transactionId",
          "type": "uint256"
        },
        {
          "internalType": "address",
          "name": "reported",
          "type": "address"
        },
        {
          "internalType": "string",
          "name": "fraudType",
          "type": "string"
        },
        {
          "internalType": "uint256",
          "name": "timestamp",
          "type": "uint256"
        },
        {
          "internalType": "string",
          "name": "details",
          "type": "string"
        },
        {
          "internalType": "address",
          "name": "reportedBy",
          "type": "address"
        },
        {
          "internalType": "bool",
          "name": "isChecked",
          "type": "bool"
        }
      ],
      "stateMutability": "view",
      "type": "function"
    },
    {
      "inputs": [
        {
          "internalType": "string",
          "name": "",
          "type": "string"
        }
      ],
      "name": "maxAllowedPrices",
      "outputs": [
        {
          "internalType": "uint256",
          "name": "",
          "type": "uint256"
        }
      ],
      "stateMutability": "view",
      "type": "function"
    },
    {
      "inputs": [
        {
          "internalType": "string",
          "name": "",
          "type": "string"
        }
      ],
      "name": "productSeasons",
      "outputs": [
        {
          "internalType": "string",
          "name": "",
          "type": "string"
        }
      ],
      "stateMutability": "view",
      "type": "function"
    },
    {
      "inputs": [],
      "name": "getSeason",
      "outputs": [
        {
          "internalType": "string",
          "name": "",
          "type": "string"
        }
      ],
      "stateMutability": "view",
      "type": "function"
    },
    {
      "inputs": [
        {
          "internalType": "string",
          "name": "productName",
          "type": "string"
        }
      ],
      "name": "isOutOfSeason",
      "outputs": [
        {
          "internalType": "bool",
          "name": "",
          "type": "bool"
        }
      ],
      "stateMutability": "view",
      "type": "function"
    },
    {
      "inputs": [
        {
          "internalType": "uint256",
          "name": "transactionId",
          "type": "uint256"
        },
        {
          "internalType": "address",
          "name": "reported",
          "type": "address"
        },
        {
          "internalType": "string",
          "name": "productName",
          "type": "string"
        },
        {
          "internalType": "address",
          "name": "reportedBy",
          "type": "address"
        }
      ],
      "name": "detectOutOfSeasonSale",
      "outputs": [],
      "stateMutability": "nonpayable",
      "type": "function"
    },
    {
      "inputs": [
        {
          "internalType": "uint256",
          "name": "transactionId",
          "type": "uint256"
        },
        {
          "internalType": "address",
          "name": "reported",
          "type": "address"
        },
        {
          "internalType": "string",
          "name": "fraudType",
          "type": "string"
        },
        {
          "internalType": "string",
          "name": "details",
          "type": "string"
        },
        {
          "internalType": "address",
          "name": "reportedBy",
          "type": "address"
        }
      ],
      "name": "logFraud",
      "outputs": [],
      "stateMutability": "nonpayable",
      "type": "function"
    },
    {
      "inputs": [
        {
          "internalType": "uint256",
          "name": "transactionId",
          "type": "uint256"
        },
        {
          "internalType": "address",
          "name": "reported",
          "type": "address"
        },
        {
          "internalType": "string",
          "name": "productName",
          "type": "string"
        },
        {
          "internalType": "uint256",
          "name": "expirationDate",
          "type": "uint256"
        },
        {
          "internalType": "address",
          "name": "reportedBy",
          "type": "address"
        }
      ],
      "name": "detectExpiredProduct",
      "outputs": [],
      "stateMutability": "nonpayable",
      "type": "function"
    },
    {
      "inputs": [
        {
          "internalType": "uint256",
          "name": "transactionId",
          "type": "uint256"
        },
        {
          "internalType": "address",
          "name": "reported",
          "type": "address"
        },
        {
          "internalType": "string",
          "name": "productName",
          "type": "string"
        },
        {
          "internalType": "uint256",
          "name": "currentPriceInCents",
          "type": "uint256"
        },
        {
          "internalType": "address",
          "name": "reportedBy",
          "type": "address"
        }
      ],
      "name": "detectOverpricedProduct",
      "outputs": [],
      "stateMutability": "nonpayable",
      "type": "function"
    },
    {
      "inputs": [
        {
          "internalType": "uint256",
          "name": "transactionId",
          "type": "uint256"
        },
        {
          "internalType": "address",
          "name": "reported",
          "type": "address"
        },
        {
          "internalType": "string",
          "name": "productName",
          "type": "string"
        },
        {
          "internalType": "string",
          "name": "healthIssue",
          "type": "string"
        },
        {
          "internalType": "address",
          "name": "reportedBy",
          "type": "address"
        }
      ],
      "name": "detectHealthViolation",
      "outputs": [],
      "stateMutability": "nonpayable",
      "type": "function"
    },
    {
      "inputs": [
        {
          "internalType": "uint256",
          "name": "fraudId",
          "type": "uint256"
        }
      ],
      "name": "getFraud",
      "outputs": [
        {
          "components": [
            {
              "internalType": "uint256",
              "name": "fraudId",
              "type": "uint256"
            },
            {
              "internalType": "uint256",
              "name": "transactionId",
              "type": "uint256"
            },
            {
              "internalType": "address",
              "name": "reported",
              "type": "address"
            },
            {
              "internalType": "string",
              "name": "fraudType",
              "type": "string"
            },
            {
              "internalType": "uint256",
              "name": "timestamp",
              "type": "uint256"
            },
            {
              "internalType": "string",
              "name": "details",
              "type": "string"
            },
            {
              "internalType": "address",
              "name": "reportedBy",
              "type": "address"
            },
            {
              "internalType": "bool",
              "name": "isChecked",
              "type": "bool"
            }
          ],
          "internalType": "struct FraudDetection.Fraud",
          "name": "",
          "type": "tuple"
        }
      ],
      "stateMutability": "view",
      "type": "function"
    },
    {
      "inputs": [],
      "name": "getAllFrauds",
      "outputs": [
        {
          "components": [
            {
              "internalType": "uint256",
              "name": "fraudId",
              "type": "uint256"
            },
            {
              "internalType": "uint256",
              "name": "transactionId",
              "type": "uint256"
            },
            {
              "internalType": "address",
              "name": "reported",
              "type": "address"
            },
            {
              "internalType": "string",
              "name": "fraudType",
              "type": "string"
            },
            {
              "internalType": "uint256",
              "name": "timestamp",
              "type": "uint256"
            },
            {
              "internalType": "string",
              "name": "details",
              "type": "string"
            },
            {
              "internalType": "address",
              "name": "reportedBy",
              "type": "address"
            },
            {
              "internalType": "bool",
              "name": "isChecked",
              "type": "bool"
            }
          ],
          "internalType": "struct FraudDetection.Fraud[]",
          "name": "",
          "type": "tuple[]"
        }
      ],
      "stateMutability": "view",
      "type": "function"
    },
    {
      "inputs": [
        {
          "internalType": "uint256",
          "name": "fraudId",
          "type": "uint256"
        },
        {
          "internalType": "bool",
          "name": "isChecked",
          "type": "bool"
        }
      ],
      "name": "updateFraudStatus",
      "outputs": [],
      "stateMutability": "nonpayable",
      "type": "function"
    },
    {
      "inputs": [
        {
          "internalType": "string",
          "name": "productName",
          "type": "string"
        },
        {
          "internalType": "uint256",
          "name": "newMaxPriceInCents",
          "type": "uint256"
        }
      ],
      "name": "setMaxAllowedPrice",
      "outputs": [],
      "stateMutability": "nonpayable",
      "type": "function"
    },
    {
      "inputs": [
        {
          "internalType": "string",
          "name": "productName",
          "type": "string"
        }
      ],
      "name": "getMaxAllowedPrice",
      "outputs": [
        {
          "internalType": "uint256",
          "name": "",
          "type": "uint256"
        }
      ],
      "stateMutability": "view",
      "type": "function"
    }
  ],
  "bytecode": "0x6080604052600080553480156200001557600080fd5b50604080518082018252600481526311985b1b60e21b6020820152815167506f7461746f657360c01b8152600260088201529151918290036028019091209062000060908262000971565b50604080518082018252600681526529bab6b6b2b960d11b6020820152815167546f6d61746f657360c01b81526002600882015291519182900360280190912090620000ad908262000971565b506040805180820182526006815265537072696e6760d01b602082015281516b53747261776265727269657360a01b81526002600c820152915191829003602c0190912090620000fe908262000971565b50604080518082018252600681526529bab6b6b2b960d11b6020820152815164506c756d7360d81b8152600260058201529151918290036025019091209062000148908262000971565b50604080518082018252600681526529bab6b6b2b960d11b60208201528151665065616368657360c81b8152600260078201529151918290036027019091209062000194908262000971565b50604080518082018252600681526529bab6b6b2b960d11b60208201528151671159d9dc1b185b9d60c21b81526002600882015291519182900360280190912090620001e1908262000971565b50604080518082018252600681526529bab6b6b2b960d11b602082015281516721bab1bab6b132b960c11b815260026008820152915191829003602801909120906200022e908262000971565b50604080518082018252600681526529bab6b6b2b960d11b60208201528151634669677360e01b8152600260048201529151918290036024019091209062000277908262000971565b50604080518082018252600481526311985b1b60e21b60208201528151654f6e696f6e7360d01b81526002600682015291519182900360260190912090620002c0908262000971565b50604080518082018252600481526311985b1b60e21b60208201528151654170706c657360d01b8152600260068201529151918290036026019091209062000309908262000971565b506040805180820182526006815265537072696e6760d01b6020820152815167436865727269657360c01b8152600260088201529151918290036028019091209062000356908262000971565b50604080518082018252600481526311985b1b60e21b602082015281516742726f63636f6c6960c01b81526002600882015291519182900360280190912090620003a1908262000971565b50604080518082018252600481526311985b1b60e21b602082015281516547726170657360d01b81526002600682015291519182900360260190912090620003ea908262000971565b5060408051808201825260068152652bb4b73a32b960d11b60208201528151634b69776960e01b8152600260048201529151918290036024019091209062000433908262000971565b50604051806040016040528060068152602001652bb4b73a32b960d11b81525060026040516200046f90654c656d6f6e7360d01b815260060190565b908152602001604051809103902090816200048b919062000971565b5060408051808201825260068152652bb4b73a32b960d11b60208201528151664f72616e67657360c81b81526002600782015291519182900360270190912090620004d7908262000971565b506040805180820182526006815265537072696e6760d01b60208201528151660a6e0d2dcc2c6d60cb1b8152600260078201529151918290036027019091209062000523908262000971565b50604080518082018252600481526311985b1b60e21b6020820152815166436172726f747360c81b815260026007820152915191829003602701909120906200056d908262000971565b506040805180820182526006815265537072696e6760d01b60208201528151664c65747475636560c81b81526002600782015291519182900360270190912090620005b9908262000971565b506040805180820182526006815265537072696e6760d01b602082015281516741707269636f747360c01b8152600260088201529151918290036028019091209062000606908262000971565b5060326003604051620006279067506f7461746f657360c01b815260080190565b908152604080519182900360200182209290925567546f6d61746f657360c01b81526003600880830182905283519283900360289081018420604690556b53747261776265727269657360a01b8452600c8401839052845193849003602c0184206064905564506c756d7360d81b8452600584018390528451938490036025018420605a9055665065616368657360c81b845260078085018490528551948590036027908101862060559055671159d9dc1b185b9d60c21b865285840185905286519586900383018620604b90556721bab1bab6b132b960c11b865285840185905286519586900383018620603c9055634669677360e01b865260048087018690528751968790036024908101882060789055654f6e696f6e7360d01b8852600680890188905289519889900360269081018a20879055654170706c657360d01b8a528982018990528a51998a900381018a206050905567436865727269657360c01b8a528988018990528a51998a900387018a20606e90556742726f63636f6c6960c01b8a528988018990528a51998a900387018a20604190556547726170657360d01b8a528982018990528a51998a900381018a20605f9055634b69776960e01b8a52928901889052895198899003909101882060829055654c656d6f6e7360d01b8852870186905287519687900301862060329055664f72616e67657360c81b86528582018590528651958690038101862060379055660a6e0d2dcc2c6d60cb1b865285820185905286519586900381018620602d905566436172726f747360c81b86528582018590528651958690038101862060239055664c65747475636560c81b8652908501849052855194859003018420601e90556741707269636f747360c01b84529083019190915291519081900390910190206073905562000a3d565b634e487b7160e01b600052604160045260246000fd5b600181811c90821680620008f757607f821691505b6020821081036200091857634e487b7160e01b600052602260045260246000fd5b50919050565b601f8211156200096c57600081815260208120601f850160051c81016020861015620009475750805b601f850160051c820191505b81811015620009685782815560010162000953565b5050505b505050565b81516001600160401b038111156200098d576200098d620008cc565b620009a5816200099e8454620008e2565b846200091e565b602080601f831160018114620009dd5760008415620009c45750858301515b600019600386901b1c1916600185901b17855562000968565b600085815260208120601f198616915b8281101562000a0e57888601518255948401946001909101908401620009ed565b508582101562000a2d5787850151600019600388901b60f8161c191681555b5050505050600190811b01905550565b611abf8062000a4d6000396000f3fe608060405234801561001057600080fd5b50600436106101005760003560e01c806368b4c0e711610097578063a1b065a511610066578063a1b065a514610234578063aa679e2a14610247578063f0e4e64214610267578063f8249665146102a357600080fd5b806368b4c0e7146101ce5780636c3dd75e146101f957806393a985731461020c578063a184de621461022157600080fd5b80632b7d2ac0116100d35780632b7d2ac0146101805780633f5d542514610193578063459645fd146101a657806354c9d273146101b957600080fd5b80630abb8047146101055780630ac89a41146101215780630efe48b5146101485780631cf0b32d1461015d575b600080fd5b61010e60005481565b6040519081526020015b60405180910390f35b61013461012f366004610fe1565b6102b6565b60405161011898979695949392919061104a565b61015b610156366004611156565b610422565b005b61017061016b36600461119b565b610447565b6040519015158152602001610118565b61015b61018e3660046111f4565b6104c9565b61015b6101a13660046111f4565b6105d3565b61015b6101b4366004611266565b610687565b6101c16106e7565b60405161011891906112e9565b61010e6101dc36600461119b565b805160208183018101805160038252928201919093012091525481565b61015b610207366004611266565b6107da565b61021461092e565b604051610118919061138e565b61015b61022f3660046113f0565b610b70565b61010e61024236600461119b565b610be5565b61025a610255366004610fe1565b610c0d565b6040516101189190611458565b61015b61027536600461146b565b6000918252600160205260409091206006018054911515600160a01b0260ff60a01b19909216919091179055565b6101c16102b136600461119b565b610db7565b6001602081905260009182526040909120805491810154600282015460038301805492936001600160a01b03909216926102ef906114a0565b80601f016020809104026020016040519081016040528092919081815260200182805461031b906114a0565b80156103685780601f1061033d57610100808354040283529160200191610368565b820191906000526020600020905b81548152906001019060200180831161034b57829003601f168201915b505050505090806004015490806005018054610383906114a0565b80601f01602080910402602001604051908101604052809291908181526020018280546103af906114a0565b80156103fc5780601f106103d1576101008083540402835291602001916103fc565b820191906000526020600020905b8154815290600101906020018083116103df57829003601f168201915b505050600690930154919250506001600160a01b0381169060ff600160a01b9091041688565b8060038360405161043391906114d4565b908152604051908190036020019020555050565b6000806104526106e7565b905060028360405161046491906114d4565b908152602001604051809103902060405160200161048291906114f0565b60405160208183030381529060405280519060200120816040516020016104a991906114d4565b604051602081830303815290604052805190602001201415915050919050565b60006003846040516104db91906114d4565b90815260200160405180910390205490508083116105565760405162461bcd60e51b815260206004820152602d60248201527f50726f64756374207072696365206973206e6f742061626f766520746865206160448201526c363637bbb2b2103634b6b4ba1760991b60648201526084015b60405180910390fd5b60008461056288610e5c565b61056b86610e5c565b61057485610e5c565b6040516020016105879493929190611566565b60408051601f19818403018152828201909152601282527113dd995c9c1c9a58d95908141c9bd91d58dd60721b602083015291506105ca908890889084876107da565b50505050505050565b8142116106225760405162461bcd60e51b815260206004820152601b60248201527f50726f64756374206973206e6f742065787069726564207965742e0000000000604482015260640161054d565b60008361062e87610e5c565b60405160200161063f92919061168d565b60408051601f19818403018152828201909152600f82526e115e1c1a5c995908141c9bd91d58dd608a1b6020830152915061067f908790879084866107da565b505050505050565b60008361069387610e5c565b846040516020016106a69392919061170a565b60408051601f19818403018152828201909152601082526f2432b0b63a34102b34b7b630ba34b7b760811b6020830152915061067f908790879084866107da565b60606000600c6106fa62278d00426117e7565b61070491906117fb565b61070f90600161180f565b905080600c1480610721575060028111155b156107485750506040805180820190915260068152652bb4b73a32b960d11b602082015290565b6003811015801561075a575060058111155b15610781575050604080518082019091526006815265537072696e6760d01b602082015290565b60068110158015610793575060088111155b156107ba57505060408051808201909152600681526529bab6b6b2b960d11b602082015290565b505060408051808201909152600481526311985b1b60e21b602082015290565b6000805490806107e983611828565b909155505060408051610100810182526000805480835260208084018a81526001600160a01b038a8116868801908152606087018b815242608089015260a088018b905289831660c089015260e08801879052948652600193849052969094208551815590519181019190915593516002850180546001600160a01b0319169190931617909155519091906003820190610883908261188c565b506080820151600482015560a082015160058201906108a2908261188c565b5060c08201516006909101805460e0909301511515600160a01b026001600160a81b03199093166001600160a01b03909216919091179190911790556000805460405190917ffe357e2cd4107eae81d1d3ef90ec5d7267760c719edb496fbceb02798db9c7ba9161091f9189918991899142918a918a919061194c565b60405180910390a25050505050565b60606000805467ffffffffffffffff81111561094c5761094c6110b3565b60405190808252806020026020018201604052801561098557816020015b610972610f88565b81526020019060019003908161096a5790505b50905060015b6000548111610b6a5760008181526001602081815260409283902083516101008101855281548152928101549183019190915260028101546001600160a01b0316928201929092526003820180549192916060840191906109eb906114a0565b80601f0160208091040260200160405190810160405280929190818152602001828054610a17906114a0565b8015610a645780601f10610a3957610100808354040283529160200191610a64565b820191906000526020600020905b815481529060010190602001808311610a4757829003601f168201915b5050505050815260200160048201548152602001600582018054610a87906114a0565b80601f0160208091040260200160405190810160405280929190818152602001828054610ab3906114a0565b8015610b005780601f10610ad557610100808354040283529160200191610b00565b820191906000526020600020905b815481529060010190602001808311610ae357829003601f168201915b5050509183525050600691909101546001600160a01b0381166020830152600160a01b900460ff16151560409091015282610b3c6001846119a9565b81518110610b4c57610b4c6119bc565b60200260200101819052508080610b6290611828565b91505061098b565b50919050565b610b7982610447565b15610bdf57600082610b896106e7565b604051602001610b9a9291906119d2565b60408051601f1981840301815282820190915260128252714f7574206f6620536561736f6e2053616c6560701b60208301529150610bdd908690869084866107da565b505b50505050565b6000600382604051610bf791906114d4565b9081526020016040518091039020549050919050565b610c15610f88565b60008281526001602081815260409283902083516101008101855281548152928101549183019190915260028101546001600160a01b031692820192909252600382018054919291606084019190610c6c906114a0565b80601f0160208091040260200160405190810160405280929190818152602001828054610c98906114a0565b8015610ce55780601f10610cba57610100808354040283529160200191610ce5565b820191906000526020600020905b815481529060010190602001808311610cc857829003601f168201915b5050505050815260200160048201548152602001600582018054610d08906114a0565b80601f0160208091040260200160405190810160405280929190818152602001828054610d34906114a0565b8015610d815780601f10610d5657610100808354040283529160200191610d81565b820191906000526020600020905b815481529060010190602001808311610d6457829003601f168201915b5050509183525050600691909101546001600160a01b0381166020830152600160a01b900460ff16151560409091015292915050565b805160208183018101805160028252928201919093012091528054610ddb906114a0565b80601f0160208091040260200160405190810160405280929190818152602001828054610e07906114a0565b8015610e545780601f10610e2957610100808354040283529160200191610e54565b820191906000526020600020905b815481529060010190602001808311610e3757829003601f168201915b505050505081565b606081600003610e835750506040805180820190915260018152600360fc1b602082015290565b8160005b8115610ead5780610e9781611828565b9150610ea69050600a836117e7565b9150610e87565b60008167ffffffffffffffff811115610ec857610ec86110b3565b6040519080825280601f01601f191660200182016040528015610ef2576020820181803683370190505b509050815b8515610f7f57610f086001826119a9565b90506000610f17600a886117e7565b610f2290600a611a59565b610f2c90886119a9565b610f37906030611a70565b905060008160f81b905080848481518110610f5457610f546119bc565b60200101906001600160f81b031916908160001a905350610f76600a896117e7565b97505050610ef7565b50949350505050565b604051806101000160405280600081526020016000815260200160006001600160a01b0316815260200160608152602001600081526020016060815260200160006001600160a01b031681526020016000151581525090565b600060208284031215610ff357600080fd5b5035919050565b60005b83811015611015578181015183820152602001610ffd565b50506000910152565b60008151808452611036816020860160208601610ffa565b601f01601f19169290920160200192915050565b888152602081018890526001600160a01b0387811660408301526101006060830181905260009161107d8483018a61101e565b915087608085015283820360a0850152611097828861101e565b951660c0840152505090151560e0909101529695505050505050565b634e487b7160e01b600052604160045260246000fd5b600082601f8301126110da57600080fd5b813567ffffffffffffffff808211156110f5576110f56110b3565b604051601f8301601f19908116603f0116810190828211818310171561111d5761111d6110b3565b8160405283815286602085880101111561113657600080fd5b836020870160208301376000602085830101528094505050505092915050565b6000806040838503121561116957600080fd5b823567ffffffffffffffff81111561118057600080fd5b61118c858286016110c9565b95602094909401359450505050565b6000602082840312156111ad57600080fd5b813567ffffffffffffffff8111156111c457600080fd5b6111d0848285016110c9565b949350505050565b80356001600160a01b03811681146111ef57600080fd5b919050565b600080600080600060a0868803121561120c57600080fd5b8535945061121c602087016111d8565b9350604086013567ffffffffffffffff81111561123857600080fd5b611244888289016110c9565b9350506060860135915061125a608087016111d8565b90509295509295909350565b600080600080600060a0868803121561127e57600080fd5b8535945061128e602087016111d8565b9350604086013567ffffffffffffffff808211156112ab57600080fd5b6112b789838a016110c9565b945060608801359150808211156112cd57600080fd5b506112da888289016110c9565b92505061125a608087016111d8565b6020815260006112fc602083018461101e565b9392505050565b60006101008251845260208301516020850152604083015160018060a01b038082166040870152606085015191508260608701526113438387018361101e565b92506080850151608087015260a0850151915085830360a0870152611368838361101e565b92508060c08601511660c0870152505060e0830151151560e08501528091505092915050565b6000602080830181845280855180835260408601915060408160051b870101925083870160005b828110156113e357603f198886030184526113d1858351611303565b945092850192908501906001016113b5565b5092979650505050505050565b6000806000806080858703121561140657600080fd5b84359350611416602086016111d8565b9250604085013567ffffffffffffffff81111561143257600080fd5b61143e878288016110c9565b92505061144d606086016111d8565b905092959194509250565b6020815260006112fc6020830184611303565b6000806040838503121561147e57600080fd5b823591506020830135801515811461149557600080fd5b809150509250929050565b600181811c908216806114b457607f821691505b602082108103610b6a57634e487b7160e01b600052602260045260246000fd5b600082516114e6818460208701610ffa565b9190910192915050565b60008083546114fe816114a0565b60018281168015611516576001811461152b5761155a565b60ff198416875282151583028701945061155a565b8760005260208060002060005b858110156115515781548a820152908401908201611538565b50505082870194505b50929695505050505050565b670283937b23ab1ba160c51b815260008551611589816008850160208a01610ffa565b740103bb4ba34103a3930b739b0b1ba34b7b71024a21605d1b60089184019182015285516115be81601d840160208a01610ffa565b7f206973206265696e6720736f6c6420617420616e206f76657270726963656420601d929091019182015269030b6b7bab73a1037b3160b51b603d820152845161160f816047840160208901610ffa565b6202e30360ec1b604792909101918201527f2e204d6178696d756d20616c6c6f776564207072696365206973200000000000604a8201528351611659816065840160208801610ffa565b6116816116746065838501016202e30360ec1b815260030190565b601760f91b815260010190565b98975050505050505050565b670283937b23ab1ba160c51b8152600083516116b0816008850160208801610ffa565b740103bb4ba34103a3930b739b0b1ba34b7b71024a21605d1b60089184019182015283516116e581601d840160208801610ffa565b6b1034b99032bc3834b932b21760a11b601d9290910191820152602901949350505050565b670283937b23ab1ba160c51b81526000845161172d816008850160208901610ffa565b740103bb4ba34103a3930b739b0b1ba34b7b71024a21605d1b600891840191820152845161176281601d840160208901610ffa565b7f206861732061206865616c74682076696f6c6174696f6e3a2000000000000000601d929091019182015283516117a0816036840160208801610ffa565b601760f91b6036929091019182015260370195945050505050565b634e487b7160e01b600052601260045260246000fd5b634e487b7160e01b600052601160045260246000fd5b6000826117f6576117f66117bb565b500490565b60008261180a5761180a6117bb565b500690565b80820180821115611822576118226117d1565b92915050565b60006001820161183a5761183a6117d1565b5060010190565b601f82111561188757600081815260208120601f850160051c810160208610156118685750805b601f850160051c820191505b8181101561067f57828155600101611874565b505050565b815167ffffffffffffffff8111156118a6576118a66110b3565b6118ba816118b484546114a0565b84611841565b602080601f8311600181146118ef57600084156118d75750858301515b600019600386901b1c1916600185901b17855561067f565b600085815260208120601f198616915b8281101561191e578886015182559484019460019091019084016118ff565b508582101561193c5787850151600019600388901b60f8161c191681555b5050505050600190811b01905550565b878152600060018060a01b03808916602084015260e0604084015261197460e084018961101e565b876060850152838103608085015261198c818861101e565b9590911660a0840152505090151560c09091015295945050505050565b81810381811115611822576118226117d1565b634e487b7160e01b600052603260045260246000fd5b670283937b23ab1ba160c51b8152600083516119f5816008850160208801610ffa565b7f206973206265696e6720736f6c64206f7574206f6620736561736f6e2064757260089184019182015263034b733960e51b60288201528351611a3f81602c840160208801610ffa565b601760f91b602c9290910191820152602d01949350505050565b8082028115828204841417611822576118226117d1565b60ff8181168382160190811115611822576118226117d156fea264697066735822122016b445182f99c8a65ed599511c3adf6fbc5f739e7854457acb40d6000695b45964736f6c63430008130033",
  "immutableReferences": {},
  "source": "// SPDX-License-Identifier: MIT\r\npragma solidity ^0.8.19;\r\n\r\ncontract FraudDetection {\r\n    event FraudDetected(\r\n        uint indexed fraudId,\r\n        uint transactionId,\r\n        address reported,\r\n        string fraudType,\r\n        uint timestamp,\r\n        string details,\r\n        address reportedBy,\r\n        bool isChecked\r\n    );\r\n                                                                             \r\n    struct Fraud {\r\n        uint fraudId;\r\n        uint transactionId;\r\n        address reported;\r\n        string fraudType;\r\n        uint timestamp;\r\n        string details;\r\n        address reportedBy;\r\n        bool isChecked;\r\n    }\r\n\r\n    uint public fraudCount = 0;\r\n                                                                                 \r\n    mapping(uint => Fraud) public frauds;\r\n    mapping(string => string) public productSeasons;\r\n    mapping(string => uint) public maxAllowedPrices;\r\n                                                                                 \r\n\r\nconstructor() {\r\n    // Associate products with their seasons\r\n    productSeasons[\"Potatoes\"] = \"Fall\";\r\n    productSeasons[\"Tomatoes\"] = \"Summer\";\r\n    productSeasons[\"Strawberries\"] = \"Spring\";\r\n    productSeasons[\"Plums\"] = \"Summer\";\r\n    productSeasons[\"Peaches\"] = \"Summer\";\r\n    productSeasons[\"Eggplant\"] = \"Summer\";\r\n    productSeasons[\"Cucumber\"] = \"Summer\";\r\n    productSeasons[\"Figs\"] = \"Summer\";\r\n    productSeasons[\"Onions\"] = \"Fall\";\r\n    productSeasons[\"Apples\"] = \"Fall\";\r\n    productSeasons[\"Cherries\"] = \"Spring\";\r\n    productSeasons[\"Broccoli\"] = \"Fall\";\r\n    productSeasons[\"Grapes\"] = \"Fall\";\r\n    productSeasons[\"Kiwi\"] = \"Winter\";\r\n    productSeasons[\"Lemons\"] = \"Winter\";\r\n    productSeasons[\"Oranges\"] = \"Winter\";\r\n    productSeasons[\"Spinach\"] = \"Spring\";\r\n    productSeasons[\"Carrots\"] = \"Fall\";\r\n    productSeasons[\"Lettuce\"] = \"Spring\";\r\n    productSeasons[\"Apricots\"] = \"Spring\";\r\n\r\n    // Set default maximum allowed prices (values in cents)\r\n    maxAllowedPrices[\"Potatoes\"] = 50; \r\n    maxAllowedPrices[\"Tomatoes\"] = 70; \r\n    maxAllowedPrices[\"Strawberries\"] = 100;\r\n    maxAllowedPrices[\"Plums\"] = 90; \r\n    maxAllowedPrices[\"Peaches\"] = 85; \r\n    maxAllowedPrices[\"Eggplant\"] = 75; \r\n    maxAllowedPrices[\"Cucumber\"] = 60; \r\n    maxAllowedPrices[\"Figs\"] = 120; \r\n    maxAllowedPrices[\"Onions\"] = 40; \r\n    maxAllowedPrices[\"Apples\"] = 80; \r\n    maxAllowedPrices[\"Cherries\"] = 110; \r\n    maxAllowedPrices[\"Broccoli\"] = 65; \r\n    maxAllowedPrices[\"Grapes\"] = 95; \r\n    maxAllowedPrices[\"Kiwi\"] = 130; \r\n    maxAllowedPrices[\"Lemons\"] = 50; \r\n    maxAllowedPrices[\"Oranges\"] = 55;\r\n    maxAllowedPrices[\"Spinach\"] = 45;\r\n    maxAllowedPrices[\"Carrots\"] = 35; \r\n    maxAllowedPrices[\"Lettuce\"] = 30; \r\n    maxAllowedPrices[\"Apricots\"] = 115;\r\n}\r\n\r\n    function getSeason() public view returns (string memory) {\r\n        uint month = (block.timestamp / 30 days) % 12 + 1;\r\n        if (month == 12 || month <= 2) {\r\n            return \"Winter\";\r\n        } else if (month >= 3 && month <= 5) {\r\n            return \"Spring\";\r\n        } else if (month >= 6 && month <= 8) {\r\n            return \"Summer\";\r\n        } else {\r\n            return \"Fall\";\r\n        }\r\n    }\r\n\r\n    function isOutOfSeason(string memory productName) public view returns (bool) {\r\n        string memory currentSeason = getSeason();\r\n        return keccak256(abi.encodePacked(currentSeason)) != keccak256(abi.encodePacked(productSeasons[productName]));\r\n    }\r\n\r\n    function detectOutOfSeasonSale(\r\n        uint transactionId,\r\n        address reported,\r\n        string memory productName,\r\n        address reportedBy\r\n    ) public {\r\n        if (isOutOfSeason(productName)) {\r\n            string memory details = string(abi.encodePacked(\"Product \", productName, \" is being sold out of season during \", getSeason(), \".\"));\r\n            logFraud(transactionId, reported, \"Out of Season Sale\", details, reportedBy);\r\n        }\r\n    }\r\n    \r\n    function logFraud(\r\n        uint transactionId,\r\n        address reported,\r\n        string memory fraudType,\r\n        string memory details,\r\n        address reportedBy\r\n    ) public {\r\n        fraudCount++;\r\n        frauds[fraudCount] = Fraud(fraudCount, transactionId, reported, fraudType, block.timestamp, details, reportedBy, false);\r\n        emit FraudDetected(fraudCount, transactionId, reported, fraudType, block.timestamp, details, reportedBy, false);\r\n    }\r\n\r\n\r\n\r\n    function detectExpiredProduct(\r\n        uint transactionId,\r\n        address reported,\r\n        string memory productName,\r\n        uint expirationDate,\r\n        address reportedBy\r\n    ) public {\r\n        require(block.timestamp > expirationDate, \"Product is not expired yet.\");\r\n        string memory details = string(abi.encodePacked(\"Product \", productName, \" with transaction ID \", uint2str(transactionId), \" is expired.\"));\r\n        logFraud(transactionId, reported, \"Expired Product\", details, reportedBy);\r\n    }\r\n\r\n function detectOverpricedProduct(\r\n    uint transactionId,\r\n    address reported,\r\n    string memory productName,\r\n    uint currentPriceInCents, // Price in cents\r\n    address reportedBy\r\n) public {\r\n    uint maxAllowedPrice = maxAllowedPrices[productName];\r\n    require(currentPriceInCents > maxAllowedPrice, \"Product price is not above the allowed limit.\");\r\n    string memory details = string(abi.encodePacked(\r\n        \"Product \", productName, \r\n        \" with transaction ID \", uint2str(transactionId), \r\n        \" is being sold at an overpriced amount of \", \r\n        uint2str(currentPriceInCents ), \".00\", \r\n        \". Maximum allowed price is \", \r\n        uint2str(maxAllowedPrice ), \".00\", \".\"\r\n    ));\r\n    logFraud(transactionId, reported, \"Overpriced Product\", details, reportedBy);\r\n}\r\n\r\n    function detectHealthViolation(\r\n        uint transactionId,\r\n        address reported,\r\n        string memory productName,\r\n        string memory healthIssue,\r\n        address reportedBy\r\n    ) public {\r\n        string memory details = string(abi.encodePacked(\"Product \", productName, \" with transaction ID \", uint2str(transactionId), \" has a health violation: \", healthIssue, \".\"));\r\n        logFraud(transactionId, reported, \"Health Violation\", details, reportedBy);\r\n    }\r\n\r\n    function uint2str(uint _i) internal pure returns (string memory) {\r\n        if (_i == 0) {\r\n            return \"0\";\r\n        }\r\n        uint j = _i;\r\n        uint len;\r\n        while (j != 0) {\r\n            len++;\r\n            j /= 10;\r\n        }\r\n        bytes memory bstr = new bytes(len);\r\n        uint k = len;\r\n        while (_i != 0) {\r\n            k = k - 1;\r\n            uint8 temp = (48 + uint8(_i - _i / 10 * 10));\r\n            bytes1 b1 = bytes1(temp);\r\n            bstr[k] = b1;\r\n            _i /= 10;\r\n        }\r\n        return string(bstr);\r\n    }\r\n\r\n    function getFraud(uint fraudId) public view returns (Fraud memory) {\r\n        return frauds[fraudId];\r\n    }\r\n\r\n    function getAllFrauds() public view returns (Fraud[] memory) {\r\n        Fraud[] memory allFrauds = new Fraud[](fraudCount);\r\n        for (uint i = 1; i <= fraudCount; i++) {\r\n            allFrauds[i - 1] = frauds[i];\r\n        }\r\n        return allFrauds;\r\n    }\r\n\r\n    function updateFraudStatus(uint fraudId, bool isChecked) public {\r\n        Fraud storage fraud = frauds[fraudId];\r\n        fraud.isChecked = isChecked;\r\n    }\r\n\r\n    function setMaxAllowedPrice(string memory productName, uint newMaxPriceInCents) public {\r\n    maxAllowedPrices[productName] = newMaxPriceInCents;\r\n}\r\n\r\nfunction getMaxAllowedPrice(string memory productName) public view returns (uint) {\r\n    return maxAllowedPrices[productName];\r\n}\r\n\r\n}\r\n",
  "sourcePath": "C:\\Users\\Aimen Haddad\\Desktop\\Green trace\\smart-contrat\\contracts\\FraudDetected.sol",
  "compiler": {
    "name": "solc",
    "version": "0.8.19+commit.7dd6d404.Emscripten.clang"
  },
  "schemaVersion": "3.4.16",
  "updatedAt": "2024-10-16T13:45:39.469Z",
  "devdoc": {
    "kind": "dev",
    "methods": {},
    "version": 1
  },
  "userdoc": {
    "kind": "user",
    "methods": {},
    "version": 1
  }
}