{
  "contractName": "MyCoin",
  "abi": [
    {
      "inputs": [
        {
          "internalType": "address",
          "name": "",
          "type": "address"
        }
      ],
      "name": "balanceOf",
      "outputs": [
        {
          "internalType": "uint256",
          "name": "",
          "type": "uint256"
        }
      ],
      "stateMutability": "view",
      "type": "function"
    },
    {
      "inputs": [
        {
          "internalType": "address",
          "name": "",
          "type": "address"
        }
      ],
      "name": "balanceToReceive",
      "outputs": [
        {
          "internalType": "uint256",
          "name": "total",
          "type": "uint256"
        }
      ],
      "stateMutability": "view",
      "type": "function"
    },
    {
      "inputs": [
        {
          "internalType": "address",
          "name": "",
          "type": "address"
        }
      ],
      "name": "balanceToSend",
      "outputs": [
        {
          "internalType": "uint256",
          "name": "total",
          "type": "uint256"
        }
      ],
      "stateMutability": "view",
      "type": "function"
    },
    {
      "inputs": [
        {
          "internalType": "string",
          "name": "str",
          "type": "string"
        }
      ],
      "name": "getHash",
      "outputs": [
        {
          "internalType": "bytes32",
          "name": "",
          "type": "bytes32"
        }
      ],
      "stateMutability": "pure",
      "type": "function"
    },
    {
      "inputs": [
        {
          "internalType": "bytes32",
          "name": "_messageHash",
          "type": "bytes32"
        }
      ],
      "name": "getEthSignedHash",
      "outputs": [
        {
          "internalType": "bytes32",
          "name": "",
          "type": "bytes32"
        }
      ],
      "stateMutability": "pure",
      "type": "function"
    },
    {
      "inputs": [
        {
          "internalType": "bytes32",
          "name": "_ethSignedMessageHash",
          "type": "bytes32"
        },
        {
          "internalType": "bytes",
          "name": "_signature",
          "type": "bytes"
        }
      ],
      "name": "verify",
      "outputs": [
        {
          "internalType": "address",
          "name": "",
          "type": "address"
        }
      ],
      "stateMutability": "pure",
      "type": "function"
    },
    {
      "inputs": [
        {
          "internalType": "address",
          "name": "receiver",
          "type": "address"
        },
        {
          "internalType": "uint256",
          "name": "amount",
          "type": "uint256"
        }
      ],
      "name": "transfert",
      "outputs": [
        {
          "internalType": "bool",
          "name": "",
          "type": "bool"
        }
      ],
      "stateMutability": "nonpayable",
      "type": "function"
    },
    {
      "inputs": [
        {
          "internalType": "uint256",
          "name": "amount",
          "type": "uint256"
        }
      ],
      "name": "mint",
      "outputs": [],
      "stateMutability": "nonpayable",
      "type": "function"
    },
    {
      "inputs": [
        {
          "internalType": "address",
          "name": "owner",
          "type": "address"
        },
        {
          "internalType": "uint256",
          "name": "amount",
          "type": "uint256"
        }
      ],
      "name": "mintAddress",
      "outputs": [],
      "stateMutability": "nonpayable",
      "type": "function"
    },
    {
      "inputs": [
        {
          "internalType": "address",
          "name": "receiver",
          "type": "address"
        },
        {
          "internalType": "address",
          "name": "sender",
          "type": "address"
        },
        {
          "internalType": "bytes",
          "name": "_signature",
          "type": "bytes"
        },
        {
          "internalType": "uint256",
          "name": "productId",
          "type": "uint256"
        }
      ],
      "name": "transfertWithSignature",
      "outputs": [
        {
          "internalType": "bool",
          "name": "",
          "type": "bool"
        }
      ],
      "stateMutability": "nonpayable",
      "type": "function"
    },
    {
      "inputs": [
        {
          "internalType": "address",
          "name": "receiver",
          "type": "address"
        },
        {
          "internalType": "address",
          "name": "sender",
          "type": "address"
        },
        {
          "internalType": "uint256",
          "name": "productId",
          "type": "uint256"
        },
        {
          "internalType": "uint256",
          "name": "amount",
          "type": "uint256"
        }
      ],
      "name": "blockAmount",
      "outputs": [],
      "stateMutability": "nonpayable",
      "type": "function"
    },
    {
      "inputs": [
        {
          "internalType": "address",
          "name": "retailerAddr",
          "type": "address"
        }
      ],
      "name": "balance",
      "outputs": [
        {
          "internalType": "uint256",
          "name": "",
          "type": "uint256"
        }
      ],
      "stateMutability": "view",
      "type": "function"
    },
    {
      "inputs": [
        {
          "internalType": "address",
          "name": "retailerAddr",
          "type": "address"
        }
      ],
      "name": "balanceToReceiveBlocked",
      "outputs": [
        {
          "internalType": "uint256",
          "name": "",
          "type": "uint256"
        }
      ],
      "stateMutability": "view",
      "type": "function"
    },
    {
      "inputs": [
        {
          "internalType": "address",
          "name": "retailerAddr",
          "type": "address"
        }
      ],
      "name": "balanceToSendBlocked",
      "outputs": [
        {
          "internalType": "uint256",
          "name": "",
          "type": "uint256"
        }
      ],
      "stateMutability": "view",
      "type": "function"
    }
  ],
  "bytecode": "0x608060405234801561001057600080fd5b50610d06806100206000396000f3fe608060405234801561001057600080fd5b50600436106100ea5760003560e01c8063a0712d681161008c578063be0717c111610066578063be0717c11461023b578063c4c89c811461025e578063d898771c14610271578063e3d670d71461028457600080fd5b8063a0712d68146101d7578063a884af13146101ea578063bb6d62f61461021757600080fd5b806346168630116100c857806346168630146101635780635b6beeb91461017857806366b6e0ba1461018b57806370a08231146101b757600080fd5b8063258ae582146100ef5780632f4ea5ea1461011f5780634362c11614610140575b600080fd5b6101026100fd366004610a46565b6102ad565b6040516001600160a01b0390911681526020015b60405180910390f35b61013261012d366004610a8d565b61032d565b604051908152602001610116565b61015361014e366004610ac2565b610381565b6040519015158152602001610116565b610176610171366004610aec565b6103dd565b005b610132610186366004610b2e565b610564565b610132610199366004610b77565b6001600160a01b031660009081526002602052604090206001015490565b6101326101c5366004610b77565b60006020819052908152604090205481565b6101766101e5366004610a8d565b610577565b6101326101f8366004610b77565b6001600160a01b03166000908152600160208190526040909120015490565b610132610225366004610b77565b6001602081905260009182526040909120015481565b610132610249366004610b77565b60026020526000908152604090206001015481565b61015361026c366004610b92565b61059e565b61017661027f366004610ac2565b61082a565b610132610292366004610b77565b6001600160a01b031660009081526020819052604090205490565b6000806000806102bc8561085b565b6040805160008152602081018083528b905260ff8316918101919091526060810184905260808101839052929550909350915060019060a0016020604051602081039080840390855afa158015610317573d6000803e3d6000fd5b5050506020604051035193505050505b92915050565b6040517f19457468657265756d205369676e6564204d6573736167653a0a3332000000006020820152603c8101829052600090605c015b604051602081830303815290604052805190602001209050919050565b336000908152602081905260408120805483919083906103a2908490610c0e565b90915550506001600160a01b038316600090815260208190526040812080548492906103cf908490610c21565b909155506001949350505050565b6001600160a01b0383166000908152602081905260409020548111156104405760405162461bcd60e51b8152602060048201526013602482015272796f7520646f6e742068617665206d6f6e657960681b60448201526064015b60405180910390fd5b6001600160a01b03831660009081526020819052604081208054839290610468908490610c0e565b90915550506001600160a01b03841660009081526002602052604081206001018054839290610498908490610c21565b90915550506001600160a01b038416600090815260026020526040902081906104c08461088a565b6040516104cd9190610c34565b9081526040805160209281900383019020929092556001600160a01b038516600090815260019091522081906105028461088a565b60405161050f9190610c34565b9081526020016040518091039020819055508060016000856001600160a01b03166001600160a01b0316815260200190815260200160002060010160008282546105599190610c21565b909155505050505050565b6000816040516020016103649190610c34565b3360009081526020819052604081208054839290610596908490610c21565b909155505050565b6000806105ad6101868461088a565b905060006105ba8261032d565b905060006105c882876102ad565b9050866001600160a01b0316816001600160a01b0316146106365760405162461bcd60e51b815260206004820152602260248201527f7369676e657220617265206e6f74207468652073656e64657220696e20696e706044820152611d5d60f21b6064820152608401610437565b6001600160a01b03881660009081526002602052604090206106578661088a565b6040516106649190610c34565b9081526020016040518091039020546000808a6001600160a01b03166001600160a01b0316815260200190815260200160002060008282546106a69190610c21565b90915550506001600160a01b03881660009081526002602052604090206106cc8661088a565b6040516106d99190610c34565b908152602001604051809103902054600260008a6001600160a01b03166001600160a01b03168152602001908152602001600020600101600082825461071f9190610c0e565b90915550506001600160a01b03881660009081526002602052604081206107458761088a565b6040516107529190610c34565b9081526040805160209281900383019020929092556001600160a01b03891660009081526001909152206107858661088a565b6040516107929190610c34565b90815260200160405180910390205460016000896001600160a01b03166001600160a01b0316815260200190815260200160002060010160008282546107d89190610c0e565b90915550506001600160a01b03871660009081526001602052604081206107fe8761088a565b60405161080b9190610c34565b9081526040519081900360200190205550600192505050949350505050565b6001600160a01b03821660009081526020819052604081208054839290610852908490610c21565b90915550505050565b6000806000835160411461086e57600080fd5b50505060208101516040820151606083015160001a9193909250565b6060816000036108b15750506040805180820190915260018152600360fc1b602082015290565b8160005b81156108db57806108c581610c63565b91506108d49050600a83610c92565b91506108b5565b60008167ffffffffffffffff8111156108f6576108f6610993565b6040519080825280601f01601f191660200182016040528015610920576020820181803683370190505b5090505b841561098b57610935600183610c0e565b9150610942600a86610ca6565b61094d906030610c21565b60f81b81838151811061096257610962610cba565b60200101906001600160f81b031916908160001a905350610984600a86610c92565b9450610924565b949350505050565b634e487b7160e01b600052604160045260246000fd5b600067ffffffffffffffff808411156109c4576109c4610993565b604051601f8501601f19908116603f011681019082821181831017156109ec576109ec610993565b81604052809350858152868686011115610a0557600080fd5b858560208301376000602087830101525050509392505050565b600082601f830112610a3057600080fd5b610a3f838335602085016109a9565b9392505050565b60008060408385031215610a5957600080fd5b82359150602083013567ffffffffffffffff811115610a7757600080fd5b610a8385828601610a1f565b9150509250929050565b600060208284031215610a9f57600080fd5b5035919050565b80356001600160a01b0381168114610abd57600080fd5b919050565b60008060408385031215610ad557600080fd5b610ade83610aa6565b946020939093013593505050565b60008060008060808587031215610b0257600080fd5b610b0b85610aa6565b9350610b1960208601610aa6565b93969395505050506040820135916060013590565b600060208284031215610b4057600080fd5b813567ffffffffffffffff811115610b5757600080fd5b8201601f81018413610b6857600080fd5b61098b848235602084016109a9565b600060208284031215610b8957600080fd5b610a3f82610aa6565b60008060008060808587031215610ba857600080fd5b610bb185610aa6565b9350610bbf60208601610aa6565b9250604085013567ffffffffffffffff811115610bdb57600080fd5b610be787828801610a1f565b949793965093946060013593505050565b634e487b7160e01b600052601160045260246000fd5b8181038181111561032757610327610bf8565b8082018082111561032757610327610bf8565b6000825160005b81811015610c555760208186018101518583015201610c3b565b506000920191825250919050565b600060018201610c7557610c75610bf8565b5060010190565b634e487b7160e01b600052601260045260246000fd5b600082610ca157610ca1610c7c565b500490565b600082610cb557610cb5610c7c565b500690565b634e487b7160e01b600052603260045260246000fdfea2646970667358221220dc44090251d6139b9fca3e7c09d250ce3dedb381bed130a7a2cbee7d36711cdd64736f6c63430008130033",
  "immutableReferences": {},
  "source": "// SPDX-License-Identifier: MIT\r\npragma solidity ^0.8.19;\r\npragma experimental ABIEncoderV2;\r\ncontract MyCoin  {\r\nmapping(address => uint) public balanceOf;\r\nmapping(address=>toSend) public balanceToSend;\r\nmapping(address=>toReceive) public balanceToReceive;\r\nstruct toSend{\r\nmapping (string => uint) keyAmount;\r\nuint total;\r\n}\r\nstruct toReceive{\r\nmapping (string => uint) keyAmount;\r\nuint total;\r\n}\r\n\r\nfunction toString(uint256 value) internal pure returns (string memory) {\r\n        // Inspired by OraclizeAPI's implementation - MIT licence\r\n        // https://github.com/oraclize/ethereum-api/blob/b42146b063c7d6ee1358846c198246239e9360e8/oraclizeAPI_0.4.25.sol\r\n        if (value == 0) {\r\n            return \"0\";\r\n        }\r\n        uint256 temp = value;\r\n        uint256 digits;\r\n        while (temp != 0) {\r\n            digits++;\r\n            temp /= 10;\r\n        }\r\n        bytes memory buffer = new bytes(digits);\r\n        while (value != 0) {\r\n            digits -= 1;\r\n            buffer[digits] = bytes1(uint8(48 + uint256(value % 10)));\r\n            value /= 10;\r\n        }\r\n        return string(buffer);\r\n    }\r\n    function getHash(string memory str) public pure returns (bytes32) {\r\n        return keccak256(abi.encodePacked(str));\r\n        \r\n    } \r\n    function getEthSignedHash(bytes32 _messageHash) public pure returns (bytes32) {\r\n        return keccak256(abi.encodePacked(\"\\x19Ethereum Signed Message:\\n32\", _messageHash));\r\n    }\r\n    function verify(bytes32 _ethSignedMessageHash, bytes memory _signature) public pure returns (address) {\r\n        (bytes32 r, bytes32 s, uint8 v) = splitSignature(_signature);\r\n        return ecrecover(_ethSignedMessageHash, v, r, s);\r\n    }\r\n    function splitSignature(bytes memory sig) internal pure returns ( bytes32, bytes32,uint8)\r\n    {\r\n    require(sig.length == 65);\r\n    bytes32 r;\r\n    bytes32 s;\r\n    uint8 v;\r\n    assembly {\r\n        \r\n        r := mload(add(sig, 32))\r\n        s := mload(add(sig, 64))\r\n        v := byte(0, mload(add(sig, 96)))\r\n    }\r\n    return (r, s, v);\r\n    }\r\n\r\nfunction transfert(address receiver,uint amount) public returns(bool){\r\n    balanceOf[msg.sender]-=amount;\r\n    balanceOf[receiver]+=amount;\r\n    return true;\r\n}\r\n\r\nfunction mint(uint amount) public {\r\n    balanceOf[msg.sender]+=amount;\r\n}\r\n\r\nfunction mintAddress(address owner,uint amount) public {\r\n    balanceOf[owner]+=amount;\r\n}\r\n\r\nfunction transfertWithSignature\r\n(address receiver,address sender,bytes memory _signature,uint productId) public returns(bool){\r\n    bytes32 hash = getHash(toString(productId));\r\n    bytes32 ethSignHash = getEthSignedHash(hash);\r\n    address signerAddress = verify(ethSignHash, _signature);\r\n    //ProductData memory product= productsData[productId];\r\n    //address wholeSalerOwner = product.owner;\r\n    // require(signerAddress==wholeSalerOwner, \"invalide signature\");\r\n    require(signerAddress== sender,\"signer are not the sender in input\");\r\n    balanceOf[receiver]+=balanceToReceive[receiver].keyAmount[toString(productId)];\r\n    balanceToReceive[receiver].total-=balanceToReceive[receiver].keyAmount[toString(productId)];\r\n    balanceToReceive[receiver].keyAmount[toString(productId)]=0;\r\n    balanceToSend[sender].total-=balanceToSend[sender].keyAmount[toString(productId)];\r\n    balanceToSend[sender].keyAmount[toString(productId)]=0;\r\n    return true;\r\n}\r\n\r\nfunction blockAmount(address receiver,address sender,uint productId ,uint amount) public {\r\nrequire(balanceOf[sender]>= amount,\"you dont have money\");\r\nbalanceOf[sender]-=amount;\r\nbalanceToReceive[receiver].total+=amount;\r\nbalanceToReceive[receiver].keyAmount[toString(productId)]=amount;\r\nbalanceToSend[sender].keyAmount[toString(productId)]=amount;\r\nbalanceToSend[sender].total+=amount;\r\n\r\n}\r\n\r\nfunction balance(address retailerAddr) public view returns ( uint ){\r\n        return balanceOf[retailerAddr];\r\n    }\r\n    function balanceToReceiveBlocked(address retailerAddr) public view returns ( uint){\r\n        return balanceToReceive[retailerAddr].total ;\r\n    }\r\n    function balanceToSendBlocked(address retailerAddr) public view returns ( uint){\r\n        return balanceToSend[retailerAddr].total ;\r\n    }\r\n\r\n}",
  "sourcePath": "C:\\Users\\Aimen Haddad\\Desktop\\Green trace\\smart-contrat\\contracts\\MyCoins.sol",
  "compiler": {
    "name": "solc",
    "version": "0.8.19+commit.7dd6d404.Emscripten.clang"
  },
  "schemaVersion": "3.4.16",
  "updatedAt": "2024-10-16T13:45:39.479Z",
  "devdoc": {
    "kind": "dev",
    "methods": {},
    "version": 1
  },
  "userdoc": {
    "kind": "user",
    "methods": {},
    "version": 1
  }
}