{
  "contractName": "SupplyChain",
  "abi": [
    {
      "anonymous": false,
      "inputs": [
        {
          "indexed": true,
          "internalType": "address",
          "name": "owner",
          "type": "address"
        },
        {
          "indexed": false,
          "internalType": "uint256",
          "name": "productId",
          "type": "uint256"
        }
      ],
      "name": "ProductAdded",
      "type": "event"
    },
    {
      "anonymous": false,
      "inputs": [
        {
          "indexed": true,
          "internalType": "address",
          "name": "owner",
          "type": "address"
        },
        {
          "indexed": true,
          "internalType": "address",
          "name": "receiver",
          "type": "address"
        },
        {
          "indexed": false,
          "internalType": "uint256",
          "name": "productId",
          "type": "uint256"
        }
      ],
      "name": "ProductBuyed",
      "type": "event"
    },
    {
      "anonymous": false,
      "inputs": [
        {
          "indexed": true,
          "internalType": "uint256",
          "name": "productId",
          "type": "uint256"
        },
        {
          "indexed": false,
          "internalType": "string",
          "name": "location",
          "type": "string"
        }
      ],
      "name": "ProductLocation",
      "type": "event"
    },
    {
      "inputs": [],
      "name": "finalID",
      "outputs": [
        {
          "internalType": "uint256",
          "name": "",
          "type": "uint256"
        }
      ],
      "stateMutability": "view",
      "type": "function"
    },
    {
      "inputs": [
        {
          "internalType": "uint256",
          "name": "",
          "type": "uint256"
        }
      ],
      "name": "productTypes",
      "outputs": [
        {
          "internalType": "string",
          "name": "",
          "type": "string"
        }
      ],
      "stateMutability": "view",
      "type": "function"
    },
    {
      "inputs": [
        {
          "internalType": "uint256",
          "name": "",
          "type": "uint256"
        }
      ],
      "name": "productsData",
      "outputs": [
        {
          "internalType": "address",
          "name": "owner",
          "type": "address"
        },
        {
          "internalType": "uint256",
          "name": "parent",
          "type": "uint256"
        },
        {
          "internalType": "uint256",
          "name": "productType",
          "type": "uint256"
        },
        {
          "internalType": "uint256",
          "name": "amount",
          "type": "uint256"
        },
        {
          "internalType": "uint256",
          "name": "amountRemaining",
          "type": "uint256"
        },
        {
          "internalType": "bool",
          "name": "isForSale",
          "type": "bool"
        },
        {
          "internalType": "uint256",
          "name": "price",
          "type": "uint256"
        },
        {
          "internalType": "uint256",
          "name": "minQuantity",
          "type": "uint256"
        },
        {
          "internalType": "uint256",
          "name": "date",
          "type": "uint256"
        },
        {
          "internalType": "uint256",
          "name": "expiredDate",
          "type": "uint256"
        }
      ],
      "stateMutability": "view",
      "type": "function"
    },
    {
      "inputs": [
        {
          "internalType": "address",
          "name": "",
          "type": "address"
        }
      ],
      "name": "usersJobType",
      "outputs": [
        {
          "internalType": "string",
          "name": "",
          "type": "string"
        }
      ],
      "stateMutability": "view",
      "type": "function"
    },
    {
      "inputs": [
        {
          "internalType": "string",
          "name": "str",
          "type": "string"
        }
      ],
      "name": "getHa",
      "outputs": [
        {
          "internalType": "bytes32",
          "name": "",
          "type": "bytes32"
        }
      ],
      "stateMutability": "pure",
      "type": "function"
    },
    {
      "inputs": [
        {
          "internalType": "string",
          "name": "productType",
          "type": "string"
        }
      ],
      "name": "indexInListProduct",
      "outputs": [
        {
          "internalType": "uint256",
          "name": "",
          "type": "uint256"
        }
      ],
      "stateMutability": "view",
      "type": "function"
    },
    {
      "inputs": [
        {
          "internalType": "uint256",
          "name": "productId",
          "type": "uint256"
        },
        {
          "internalType": "bytes",
          "name": "signature",
          "type": "bytes"
        },
        {
          "internalType": "address",
          "name": "coinAddress",
          "type": "address"
        }
      ],
      "name": "farmerConfirmSending",
      "outputs": [],
      "stateMutability": "nonpayable",
      "type": "function"
    },
    {
      "inputs": [
        {
          "internalType": "uint256",
          "name": "productId",
          "type": "uint256"
        },
        {
          "internalType": "bytes",
          "name": "signature",
          "type": "bytes"
        },
        {
          "internalType": "address",
          "name": "coinAddress",
          "type": "address"
        }
      ],
      "name": "wholeSalerConfirmSending",
      "outputs": [],
      "stateMutability": "nonpayable",
      "type": "function"
    },
    {
      "inputs": [
        {
          "internalType": "uint256",
          "name": "productId",
          "type": "uint256"
        },
        {
          "internalType": "bytes",
          "name": "signature",
          "type": "bytes"
        },
        {
          "internalType": "address",
          "name": "coinAddress",
          "type": "address"
        }
      ],
      "name": "retailerConfirmSending",
      "outputs": [],
      "stateMutability": "nonpayable",
      "type": "function"
    },
    {
      "inputs": [
        {
          "internalType": "uint256",
          "name": "productId",
          "type": "uint256"
        },
        {
          "internalType": "uint256",
          "name": "amount",
          "type": "uint256"
        },
        {
          "internalType": "address",
          "name": "coinAddress",
          "type": "address"
        }
      ],
      "name": "buyProductWholesaler",
      "outputs": [],
      "stateMutability": "nonpayable",
      "type": "function"
    },
    {
      "inputs": [
        {
          "internalType": "uint256",
          "name": "productId",
          "type": "uint256"
        },
        {
          "internalType": "uint256",
          "name": "amount",
          "type": "uint256"
        },
        {
          "internalType": "address",
          "name": "coinAddress",
          "type": "address"
        }
      ],
      "name": "buyProductRetailer",
      "outputs": [],
      "stateMutability": "nonpayable",
      "type": "function"
    },
    {
      "inputs": [
        {
          "internalType": "uint256",
          "name": "productId",
          "type": "uint256"
        },
        {
          "internalType": "uint256",
          "name": "amount",
          "type": "uint256"
        },
        {
          "internalType": "address",
          "name": "coinAddress",
          "type": "address"
        }
      ],
      "name": "buyProductCustomers",
      "outputs": [],
      "stateMutability": "nonpayable",
      "type": "function"
    },
    {
      "inputs": [
        {
          "internalType": "string",
          "name": "pproductType",
          "type": "string"
        }
      ],
      "name": "farmersProductsListe",
      "outputs": [
        {
          "internalType": "uint256[]",
          "name": "",
          "type": "uint256[]"
        }
      ],
      "stateMutability": "view",
      "type": "function"
    },
    {
      "inputs": [
        {
          "internalType": "string",
          "name": "pproductType",
          "type": "string"
        }
      ],
      "name": "wholesalersProductsListe",
      "outputs": [
        {
          "internalType": "uint256[]",
          "name": "",
          "type": "uint256[]"
        }
      ],
      "stateMutability": "view",
      "type": "function"
    },
    {
      "inputs": [
        {
          "internalType": "string",
          "name": "pproductType",
          "type": "string"
        }
      ],
      "name": "retailersProductsListe",
      "outputs": [
        {
          "internalType": "uint256[]",
          "name": "",
          "type": "uint256[]"
        }
      ],
      "stateMutability": "view",
      "type": "function"
    },
    {
      "inputs": [
        {
          "internalType": "address",
          "name": "theFarmer",
          "type": "address"
        },
        {
          "internalType": "uint256",
          "name": "listType",
          "type": "uint256"
        }
      ],
      "name": "farmersProductsPersonal",
      "outputs": [
        {
          "internalType": "uint256[]",
          "name": "",
          "type": "uint256[]"
        }
      ],
      "stateMutability": "view",
      "type": "function"
    },
    {
      "inputs": [
        {
          "internalType": "address",
          "name": "wholeSaerAddr",
          "type": "address"
        },
        {
          "internalType": "uint256",
          "name": "listType",
          "type": "uint256"
        }
      ],
      "name": "wholeSalerProductsPersonal",
      "outputs": [
        {
          "internalType": "uint256[]",
          "name": "",
          "type": "uint256[]"
        }
      ],
      "stateMutability": "view",
      "type": "function"
    },
    {
      "inputs": [
        {
          "internalType": "address",
          "name": "retailerAddr",
          "type": "address"
        },
        {
          "internalType": "uint256",
          "name": "listType",
          "type": "uint256"
        }
      ],
      "name": "retailerProductsPersonal",
      "outputs": [
        {
          "internalType": "uint256[]",
          "name": "",
          "type": "uint256[]"
        }
      ],
      "stateMutability": "view",
      "type": "function"
    },
    {
      "inputs": [
        {
          "internalType": "address",
          "name": "theCustomer",
          "type": "address"
        },
        {
          "internalType": "uint256",
          "name": "listType",
          "type": "uint256"
        }
      ],
      "name": "customerProductsPersonal",
      "outputs": [
        {
          "internalType": "uint256[]",
          "name": "",
          "type": "uint256[]"
        }
      ],
      "stateMutability": "view",
      "type": "function"
    },
    {
      "inputs": [
        {
          "internalType": "uint256",
          "name": "productId",
          "type": "uint256"
        },
        {
          "internalType": "uint256",
          "name": "amount",
          "type": "uint256"
        },
        {
          "internalType": "uint256",
          "name": "price",
          "type": "uint256"
        },
        {
          "internalType": "uint256",
          "name": "minQuantity",
          "type": "uint256"
        },
        {
          "internalType": "uint256",
          "name": "expiredDate",
          "type": "uint256"
        }
      ],
      "name": "modifyProduct",
      "outputs": [],
      "stateMutability": "nonpayable",
      "type": "function"
    },
    {
      "inputs": [
        {
          "internalType": "string",
          "name": "pproductType",
          "type": "string"
        },
        {
          "internalType": "uint256",
          "name": "amount",
          "type": "uint256"
        },
        {
          "internalType": "uint256",
          "name": "price",
          "type": "uint256"
        },
        {
          "internalType": "uint256",
          "name": "minQuantity",
          "type": "uint256"
        },
        {
          "internalType": "string",
          "name": "location",
          "type": "string"
        },
        {
          "internalType": "uint256",
          "name": "expiredDate",
          "type": "uint256"
        }
      ],
      "name": "farmerAddProduct",
      "outputs": [],
      "stateMutability": "nonpayable",
      "type": "function"
    },
    {
      "inputs": [
        {
          "internalType": "uint256",
          "name": "productId",
          "type": "uint256"
        },
        {
          "internalType": "uint256",
          "name": "price",
          "type": "uint256"
        },
        {
          "internalType": "uint256",
          "name": "minQuantity",
          "type": "uint256"
        },
        {
          "internalType": "string",
          "name": "_location",
          "type": "string"
        },
        {
          "internalType": "uint256",
          "name": "expiredDate",
          "type": "uint256"
        }
      ],
      "name": "wholeSalerFromStockToSale",
      "outputs": [],
      "stateMutability": "nonpayable",
      "type": "function"
    },
    {
      "inputs": [
        {
          "internalType": "uint256",
          "name": "productId",
          "type": "uint256"
        },
        {
          "internalType": "uint256",
          "name": "price",
          "type": "uint256"
        },
        {
          "internalType": "uint256",
          "name": "minQuantity",
          "type": "uint256"
        },
        {
          "internalType": "string",
          "name": "_location",
          "type": "string"
        },
        {
          "internalType": "uint256",
          "name": "expiredDate",
          "type": "uint256"
        }
      ],
      "name": "retailerFromStockToSale",
      "outputs": [],
      "stateMutability": "nonpayable",
      "type": "function"
    },
    {
      "inputs": [
        {
          "internalType": "address",
          "name": "wholeSaerAddr",
          "type": "address"
        }
      ],
      "name": "wholeSalerStock",
      "outputs": [
        {
          "internalType": "uint256[]",
          "name": "",
          "type": "uint256[]"
        }
      ],
      "stateMutability": "view",
      "type": "function"
    },
    {
      "inputs": [
        {
          "internalType": "address",
          "name": "wholeSaerAddr",
          "type": "address"
        }
      ],
      "name": "wholeSalerToSend",
      "outputs": [
        {
          "internalType": "uint256[]",
          "name": "",
          "type": "uint256[]"
        }
      ],
      "stateMutability": "view",
      "type": "function"
    },
    {
      "inputs": [
        {
          "internalType": "address",
          "name": "wholeSaerAddr",
          "type": "address"
        }
      ],
      "name": "wholeSalerToReceive",
      "outputs": [
        {
          "internalType": "uint256[]",
          "name": "",
          "type": "uint256[]"
        }
      ],
      "stateMutability": "view",
      "type": "function"
    },
    {
      "inputs": [
        {
          "internalType": "address",
          "name": "retailerAddr",
          "type": "address"
        }
      ],
      "name": "retailerToSend",
      "outputs": [
        {
          "internalType": "uint256[]",
          "name": "",
          "type": "uint256[]"
        }
      ],
      "stateMutability": "view",
      "type": "function"
    },
    {
      "inputs": [
        {
          "internalType": "address",
          "name": "retailerAddr",
          "type": "address"
        }
      ],
      "name": "retailerToReceive",
      "outputs": [
        {
          "internalType": "uint256[]",
          "name": "",
          "type": "uint256[]"
        }
      ],
      "stateMutability": "view",
      "type": "function"
    },
    {
      "inputs": [
        {
          "internalType": "address",
          "name": "theCustomer",
          "type": "address"
        }
      ],
      "name": "customersToReceive",
      "outputs": [
        {
          "internalType": "uint256[]",
          "name": "",
          "type": "uint256[]"
        }
      ],
      "stateMutability": "view",
      "type": "function"
    },
    {
      "inputs": [
        {
          "internalType": "address",
          "name": "wholeSaerAddr",
          "type": "address"
        }
      ],
      "name": "wholeSalerproductsForSale",
      "outputs": [
        {
          "internalType": "uint256[]",
          "name": "",
          "type": "uint256[]"
        }
      ],
      "stateMutability": "view",
      "type": "function"
    },
    {
      "inputs": [
        {
          "internalType": "address",
          "name": "wholeSaerAddr",
          "type": "address"
        }
      ],
      "name": "wholeSalerHistory",
      "outputs": [
        {
          "internalType": "uint256[]",
          "name": "",
          "type": "uint256[]"
        }
      ],
      "stateMutability": "view",
      "type": "function"
    },
    {
      "inputs": [
        {
          "internalType": "address",
          "name": "retailerAddr",
          "type": "address"
        }
      ],
      "name": "retailerStock",
      "outputs": [
        {
          "internalType": "uint256[]",
          "name": "",
          "type": "uint256[]"
        }
      ],
      "stateMutability": "view",
      "type": "function"
    },
    {
      "inputs": [
        {
          "internalType": "address",
          "name": "retailerAddr",
          "type": "address"
        }
      ],
      "name": "retailersproductsForSale",
      "outputs": [
        {
          "internalType": "uint256[]",
          "name": "",
          "type": "uint256[]"
        }
      ],
      "stateMutability": "view",
      "type": "function"
    },
    {
      "inputs": [
        {
          "internalType": "address",
          "name": "retailerAddr",
          "type": "address"
        }
      ],
      "name": "retailerHistory",
      "outputs": [
        {
          "internalType": "uint256[]",
          "name": "",
          "type": "uint256[]"
        }
      ],
      "stateMutability": "view",
      "type": "function"
    },
    {
      "inputs": [
        {
          "internalType": "address",
          "name": "theFarmer",
          "type": "address"
        }
      ],
      "name": "farmersProductsForSale",
      "outputs": [
        {
          "internalType": "uint256[]",
          "name": "",
          "type": "uint256[]"
        }
      ],
      "stateMutability": "view",
      "type": "function"
    },
    {
      "inputs": [
        {
          "internalType": "address",
          "name": "theFarmer",
          "type": "address"
        }
      ],
      "name": "farmersHistory",
      "outputs": [
        {
          "internalType": "uint256[]",
          "name": "",
          "type": "uint256[]"
        }
      ],
      "stateMutability": "view",
      "type": "function"
    },
    {
      "inputs": [
        {
          "internalType": "address",
          "name": "theFarmer",
          "type": "address"
        }
      ],
      "name": "farmersToSend",
      "outputs": [
        {
          "internalType": "uint256[]",
          "name": "",
          "type": "uint256[]"
        }
      ],
      "stateMutability": "view",
      "type": "function"
    },
    {
      "inputs": [
        {
          "internalType": "address",
          "name": "theCustomer",
          "type": "address"
        }
      ],
      "name": "customersHistory",
      "outputs": [
        {
          "internalType": "uint256[]",
          "name": "",
          "type": "uint256[]"
        }
      ],
      "stateMutability": "view",
      "type": "function"
    },
    {
      "inputs": [
        {
          "internalType": "uint256[]",
          "name": "list",
          "type": "uint256[]"
        },
        {
          "internalType": "uint256",
          "name": "value",
          "type": "uint256"
        }
      ],
      "name": "retreiveIndex",
      "outputs": [
        {
          "internalType": "bool",
          "name": "b",
          "type": "bool"
        },
        {
          "internalType": "uint256",
          "name": "u",
          "type": "uint256"
        }
      ],
      "stateMutability": "pure",
      "type": "function"
    },
    {
      "inputs": [
        {
          "internalType": "string",
          "name": "a",
          "type": "string"
        },
        {
          "internalType": "string",
          "name": "b",
          "type": "string"
        }
      ],
      "name": "compareStrings",
      "outputs": [
        {
          "internalType": "bool",
          "name": "",
          "type": "bool"
        }
      ],
      "stateMutability": "pure",
      "type": "function"
    },
    {
      "inputs": [
        {
          "internalType": "string[]",
          "name": "list",
          "type": "string[]"
        },
        {
          "internalType": "string",
          "name": "value",
          "type": "string"
        }
      ],
      "name": "retreiveIndexString",
      "outputs": [
        {
          "internalType": "bool",
          "name": "b",
          "type": "bool"
        },
        {
          "internalType": "uint256",
          "name": "u",
          "type": "uint256"
        }
      ],
      "stateMutability": "pure",
      "type": "function"
    },
    {
      "inputs": [
        {
          "internalType": "uint256[]",
          "name": "_productsId",
          "type": "uint256[]"
        }
      ],
      "name": "productDatafromList",
      "outputs": [
        {
          "components": [
            {
              "internalType": "address",
              "name": "owner",
              "type": "address"
            },
            {
              "internalType": "uint256",
              "name": "parent",
              "type": "uint256"
            },
            {
              "internalType": "uint256",
              "name": "productType",
              "type": "uint256"
            },
            {
              "internalType": "uint256",
              "name": "amount",
              "type": "uint256"
            },
            {
              "internalType": "uint256",
              "name": "amountRemaining",
              "type": "uint256"
            },
            {
              "internalType": "bool",
              "name": "isForSale",
              "type": "bool"
            },
            {
              "internalType": "uint256",
              "name": "price",
              "type": "uint256"
            },
            {
              "internalType": "uint256",
              "name": "minQuantity",
              "type": "uint256"
            },
            {
              "internalType": "uint256",
              "name": "date",
              "type": "uint256"
            },
            {
              "internalType": "uint256",
              "name": "expiredDate",
              "type": "uint256"
            }
          ],
          "internalType": "struct SupplyChain.ProductData[]",
          "name": "",
          "type": "tuple[]"
        }
      ],
      "stateMutability": "view",
      "type": "function"
    }
  ],
  "bytecode": "0x6103e8600055600861030081815267506f7461746f657360c01b61032052608090815261034082815267546f6d61746f657360c01b6103605260a052600c6103809081526b53747261776265727269657360a01b6103a05260c05260056103c090815264506c756d7360d81b6103e05260e0526007610400818152665065616368657360c81b6104205261010052610440838152671159d9dc1b185b9d60c21b61046052610120526104808381526721bab1bab6b132b960c11b6104a0526101405260046104c0818152634669677360e01b6104e052610160526006610500818152654f6e696f6e7360d01b6105205261018052610540818152654170706c657360d01b610560526101a05261058085815267436865727269657360c01b6105a0526101c0526105c08581526742726f63636f6c6960c01b6105e0526101e0526106008181526547726170657360d01b6106205261020052610640918252634b69776960e01b6106605261022091909152610680908152654c656d6f6e7360d01b6106a052610240526106c0818152664f72616e67657360c81b6106e05261026052610700818152660a6e0d2dcc2c6d60cb1b610720526102805261074081815266436172726f747360c81b610760526102a052610780908152664c65747475636560c81b6107a0526102c0526108006040526107c09182526741707269636f747360c01b6107e0526102e0919091526200021f90600190601462000234565b503480156200022d57600080fd5b506200047c565b8280548282559060005260206000209081019282156200027f579160200282015b828111156200027f57825182906200026e9082620003b0565b509160200191906001019062000255565b506200028d92915062000291565b5090565b808211156200028d576000620002a88282620002b2565b5060010162000291565b508054620002c09062000321565b6000825580601f10620002d1575050565b601f016020900490600052602060002090810190620002f19190620002f4565b50565b5b808211156200028d5760008155600101620002f5565b634e487b7160e01b600052604160045260246000fd5b600181811c908216806200033657607f821691505b6020821081036200035757634e487b7160e01b600052602260045260246000fd5b50919050565b601f821115620003ab57600081815260208120601f850160051c81016020861015620003865750805b601f850160051c820191505b81811015620003a75782815560010162000392565b5050505b505050565b81516001600160401b03811115620003cc57620003cc6200030b565b620003e481620003dd845462000321565b846200035d565b602080601f8311600181146200041c5760008415620004035750858301515b600019600386901b1c1916600185901b178555620003a7565b600085815260208120601f198616915b828110156200044d578886015182559484019460019091019084016200042c565b50858210156200046c5787850151600019600388901b60f8161c191681555b5050505050600190811b01905550565b614765806200048c6000396000f3fe608060405234801561001057600080fd5b506004361061025d5760003560e01c80636dba278311610146578063b7c64877116100c3578063cc9c002311610087578063cc9c002314610640578063d3c2c39814610653578063decd924b14610666578063eb87f96914610679578063f5221a871461068c578063f636a50e1461069f57600080fd5b8063b7c64877146105c4578063b887b23c146105d7578063ba438a07146105ea578063bed34bba146105fd578063c09327401461062057600080fd5b80638695c4d21161010a5780638695c4d21461056557806388191b7014610578578063a84acf521461058b578063aa5899231461059e578063b591854e146105b157600080fd5b80636dba2783146104555780636e6072ed14610468578063779b82021461047b5780637c09b0bb1461053f57806382ceecb41461055257600080fd5b806335da8079116101df5780634cb3eadc116101a35780634cb3eadc146103d65780634d2ef0f1146103e9578063568ac0b4146103fc5780635751bfdc1461041c5780635aa8e2441461042f5780636b5ea4391461044257600080fd5b806335da80791461034f57806337d684a51461036257806343d6ad1c146103755780634a3d2b5a146103b05780634c7eed18146103c357600080fd5b806319b470f91161022657806319b470f9146102fa57806325db31a61461030d5780632d02388a14610320578063333f92691461033357806333a4d9911461034657600080fd5b80621d52141461026257806301364eb5146102775780630a0b2d4d1461028a57806315e91ad5146102b0578063196ad2fd146102d0575b600080fd5b610275610270366004613fd9565b6106b2565b005b61027561028536600461403b565b6108c6565b61029d6102983660046140c4565b610af7565b6040519081526020015b60405180910390f35b6102c36102be36600461411d565b610be0565b6040516102a79190614147565b6102e36102de36600461421a565b610dc4565b6040805192151583526020830191909152016102a7565b6102c361030836600461411d565b610e39565b6102c361031b36600461425f565b610eae565b6102c361032e36600461425f565b610f1d565b61027561034136600461427a565b610f87565b61029d60005481565b61027561035d3660046142af565b6114dd565b61027561037036600461427a565b611a03565b610275610383366004614311565b60009485526005602052604090942060068101929092556004820192909255600781019190915560090155565b6102c36103be36600461425f565b61203a565b6102c36103d136600461425f565b6120a7565b6102c36103e43660046140c4565b612114565b6102c36103f736600461425f565b612186565b61040f61040a36600461425f565b6121f0565b6040516102a7919061439c565b61027561042a36600461427a565b61228a565b6102c361043d3660046140c4565b612870565b6102c361045036600461425f565b6128e0565b6102c36104633660046140c4565b61294d565b6102c361047636600461425f565b6129bd565b6104e96104893660046143af565b600560208190526000918252604090912080546001820154600283015460038401546004850154958501546006860154600787015460088801546009909801546001600160a01b03909716989597949693959460ff90931693919290918a565b604080516001600160a01b03909b168b5260208b01999099529789019690965260608801949094526080870192909252151560a086015260c085015260e0840152610100830152610120820152610140016102a7565b61040f61054d3660046143af565b612a2a565b61029d6105603660046140c4565b612a55565b6102c361057336600461425f565b612a85565b6102c361058636600461425f565b612af2565b6102c361059936600461425f565b612b5f565b6102756105ac3660046142af565b612bcc565b6102756105bf366004613fd9565b6130de565b6102c36105d236600461411d565b6132ea565b6102c36105e536600461425f565b6133cf565b6102756105f83660046142af565b61343c565b61061061060b3660046143c8565b613931565b60405190151581526020016102a7565b61063361062e36600461442c565b61398a565b6040516102a79190614461565b6102c361064e36600461425f565b613b36565b6102c361066136600461411d565b613ba0565b6102c361067436600461425f565b613d6b565b6102c361068736600461425f565b613dd5565b6102c361069a36600461425f565b613e42565b6102e36106ad36600461450f565b613eaf565b6000858152600560205260408082206006810187905560090183905551819087907f6d97897343a1a8545b3799dc518f14c3e89c1761ef2a3280dccf03b0c5ec0f739061070090879061439c565b60405180910390a26000878152600560208181526040808420928301805460ff1916600117905560079092018890553383526008815291819020600201805482518185028101850190935280835261078c9383018282801561078157602002820191906000526020600020905b81548152602001906001019080831161076d575b505050505088610dc4565b909250905081156108875733600090815260086020526040902060020180546107b7906001906145e2565b815481106107c7576107c76145f5565b6000918252602080832090910154338352600890915260409091206002018054839081106107f7576107f76145f5565b60009182526020808320909101929092553381526008909152604090206002018054806108265761082661460b565b600082815260208082208301600019908101839055909201909255338252600881526040808320805460018181018355918552838520018b90558a845260058352818420600201548452600483529083208054918201815583529120018790555b60405187815233907f06d195a39cae44c0b031a2dc9a496102b4bd20ce290705703921389588231858906020015b60405180910390a250505050505050565b6000805490806108d583614621565b919050555060006108e587610af7565b9050600260008281526020019081526020016000206000016000549080600181540180825580915050600190039060005260206000200160009091909190915055604051806101400160405280336001600160a01b031681526020016000815260200182815260200187815260200187815260200160011515815260200186815260200185815260200142815260200183815250600560008054815260200190815260200160002060008201518160000160006101000a8154816001600160a01b0302191690836001600160a01b031602179055506020820151816001015560408201518160020155606082015181600301556080820151816004015560a08201518160050160006101000a81548160ff02191690831515021790555060c0820151816006015560e082015181600701556101008201518160080155610120820151816009015590505060066000336001600160a01b03166001600160a01b031681526020019081526020016000206000016000549080600181540180825580915050600190039060005260206000200160009091909190915055336001600160a01b03167f06d195a39cae44c0b031a2dc9a496102b4bd20ce290705703921389588231858600054604051610abd91815260200190565b60405180910390a26000547f6d97897343a1a8545b3799dc518f14c3e89c1761ef2a3280dccf03b0c5ec0f73846040516108b5919061439c565b6000806000610bd76001805480602002602001604051908101604052809291908181526020016000905b82821015610bcd578382906000526020600020018054610b409061463a565b80601f0160208091040260200160405190810160405280929190818152602001828054610b6c9061463a565b8015610bb95780601f10610b8e57610100808354040283529160200191610bb9565b820191906000526020600020905b815481529060010190602001808311610b9c57829003601f168201915b505050505081526020019060010190610b21565b5050505085613eaf565b95945050505050565b606081600103610c54576001600160a01b03831660009081526007602090815260409182902080548351818402810184019094528084529091830182828015610c4857602002820191906000526020600020905b815481526020019060010190808311610c34575b50505050509050610dbe565b81600203610cc7576001600160a01b03831660009081526007602090815260409182902060020180548351818402810184019094528084529091830182828015610c485760200282019190600052602060002090815481526020019060010190808311610c345750505050509050610dbe565b81600303610d3a576001600160a01b03831660009081526007602090815260409182902060040180548351818402810184019094528084529091830182828015610c485760200282019190600052602060002090815481526020019060010190808311610c345750505050509050610dbe565b81600403610dad576001600160a01b03831660009081526007602090815260409182902060030180548351818402810184019094528084529091830182828015610c485760200282019190600052602060002090815481526020019060010190808311610c345750505050509050610dbe565b506040805160008152602081019091525b92915050565b6000806000805b8551811015610e205784868281518110610de757610de76145f5565b602002602001015103610e005760019350809250610e20565b81610e0a81614621565b9250508080610e1890614621565b915050610dcb565b5084518103610e3157600092508091505b509250929050565b606081600403610dad576001600160a01b03831660009081526009602090815260409182902060010180548351818402810184019094528084529091830182828015610c485760200282019190600052602060002090815481526020019060010190808311610c345750505050509050610dbe565b6001600160a01b038116600090815260076020908152604091829020600301805483518184028101840190945280845260609392830182828015610f1157602002820191906000526020600020905b815481526020019060010190808311610efd575b50505050509050919050565b6001600160a01b038116600090815260066020908152604091829020805483518184028101840190945280845260609392830182828015610f115760200282019190600052602060002090815481526020019060010190808311610efd5750505050509050919050565b600080549080610f9683614621565b9091555050600083815260056020818152604080842081516101408101835281546001600160a01b0390811680835260018401549583019590955260028301549382019390935260038201546060820152600482015460808201529381015460ff16151560a0850152600681015460c08501819052600782015460e086015260088201546101008601526009909101546101208501529354929390851692634616863092913391906110489089614674565b6040518563ffffffff1660e01b8152600401611067949392919061468b565b600060405180830381600087803b15801561108157600080fd5b505af1158015611095573d6000803e3d6000fd5b505050600085815260056020526040812060040180548693509091906110bc9084906145e2565b909155505060408051610140810182523380825260208083018881528585015184860190815260608501898152608086018a8152600060a0880181815260c0890182815260e08a01838152426101008c01908152610120808f0151908d01908152855486526005808c528e87209d518e546001600160a01b039182166001600160a01b0319909116178f559a5160018f810191909155995160028f0155975160038e015595516004808e019190915593518c8801805491151560ff1992909216919091179055915160068c0155516007808c019190915590516008808c0191909155935160099a8b0155978252978652888120815490850180548087018255908352878320015589519094168452845286832083549087018054938401815584528484209092019190915589825290915292909220908101549101548591101561121a57600085815260056020526040902060048101546007909101555b60008581526005602052604081206004015490036114d6576000858152600560209081526040808320546001600160a01b031683526008825280832080548251818502810185019093528083528493849384936112b09391929091908301828280156112a557602002820191906000526020600020905b815481526020019060010190808311611291575b50505050508a610dc4565b60008b81526005602090815260408083206002015483526004825291829020805483518184028101840190945280845294985092965061132693919291908301828280156112a557602002820191906000526020600020908154815260200190600101908083116112915750505050508a610dc4565b90925090508315611407576000898152600560209081526040808320546001600160a01b03168352600890915290208054611363906001906145e2565b81548110611373576113736145f5565b60009182526020808320909101548b8352600582526040808420546001600160a01b03168452600890925291208054859081106113b2576113b26145f5565b60009182526020808320909101929092558a8152600582526040808220546001600160a01b031682526008909252208054806113f0576113f061460b565b600190038181906000526020600020016000905590555b81156114d1576000898152600560209081526040808320600201548352600490915290208054611439906001906145e2565b81548110611449576114496145f5565b60009182526020808320909101548b835260058252604080842060020154845260049092529120805483908110611482576114826145f5565b60009182526020808320909101929092558a81526005825260408082206002015482526004909252208054806114ba576114ba61460b565b600190038181906000526020600020016000905590555b505050505b5050505050565b600060056000858152602001908152602001600020604051806101400160405290816000820160009054906101000a90046001600160a01b03166001600160a01b03166001600160a01b03168152602001600182015481526020016002820154815260200160038201548152602001600482015481526020016005820160009054906101000a900460ff16151515158152602001600682015481526020016007820154815260200160088201548152602001600982015481525050905060008160000151905060006005600084602001518152602001908152602001600020604051806101400160405290816000820160009054906101000a90046001600160a01b03166001600160a01b03166001600160a01b03168152602001600182015481526020016002820154815260200160038201548152602001600482015481526020016005820160009054906101000a900460ff161515151581526020016006820154815260200160078201548152602001600882015481526020016009820154815250509050600081600001519050846001600160a01b031663c4c89c818285898b6040518563ffffffff1660e01b815260040161169f94939291906146b4565b6020604051808303816000875af11580156116be573d6000803e3d6000fd5b505050506040513d601f19601f820116820180604052508101906116e291906146f1565b5060008060008061176960066000876001600160a01b03166001600160a01b0316815260200190815260200160002060020180548060200260200160405190810160405280929190818152602001828054801561175e57602002820191906000526020600020905b81548152602001906001019080831161174a575b50505050508c610dc4565b6001600160a01b03891660009081526007602090815260409182902060030180548351818402810184019094528084529498509296506117df939192919083018282801561175e576020028201919060005260206000209081548152602001906001019080831161174a5750505050508c610dc4565b90925090508380156117ee5750835b156119f6576001600160a01b0385166000908152600660205260409020600201805461181c906001906145e2565b8154811061182c5761182c6145f5565b906000526020600020015460066000876001600160a01b03166001600160a01b031681526020019081526020016000206002018481548110611870576118706145f5565b60009182526020808320909101929092556001600160a01b03871681526006909152604090206002018054806118a8576118a861460b565b6000828152602080822083016000199081018390559092019092556001600160a01b0389168252600790526040902060030180546118e8906001906145e2565b815481106118f8576118f86145f5565b906000526020600020015460076000896001600160a01b03166001600160a01b03168152602001908152602001600020600301848154811061193c5761193c6145f5565b60009182526020808320909101929092556001600160a01b03891681526007909152604090206003018054806119745761197461460b565b6000828152602080822060001990840181018390559092019092556001600160a01b0389811683526007825260408084206002018054600181018255908552938390209093018e90558a5192518e815292169133917f91114d9b00a39d30565ac9db69f2ad2f767ba36ecd1fa5a65c4d2ce4f13fa40191015b60405180910390a35b5050505050505050505050565b600080549080611a1283614621565b9091555050600083815260056020818152604080842081516101408101835281546001600160a01b0390811680835260018401549583019590955260028301549382019390935260038201546060820152600482015460808201529381015460ff16151560a0850152600681015460c08501819052600782015460e08601526008820154610100860152600990910154610120850152935492939085169263461686309291339190611ac49089614674565b6040518563ffffffff1660e01b8152600401611ae3949392919061468b565b600060405180830381600087803b158015611afd57600080fd5b505af1158015611b11573d6000803e3d6000fd5b50505060008581526005602052604081206004018054869350909190611b389084906145e2565b925050819055506000849050604051806101400160405280336001600160a01b03168152602001828152602001836040015181526020018581526020018581526020016000151581526020016000815260200160008152602001428152602001836101200151815250600560008054815260200190815260200160002060008201518160000160006101000a8154816001600160a01b0302191690836001600160a01b031602179055506020820151816001015560408201518160020155606082015181600301556080820151816004015560a08201518160050160006101000a81548160ff02191690831515021790555060c0820151816006015560e082015181600701556101008201518160080155610120820151816009015590505060086000336001600160a01b03166001600160a01b03168152602001908152602001600020600201600054908060018154018082558091505060019003906000526020600020016000909190919091505560086000336001600160a01b03166001600160a01b0316815260200190815260200160002060030160005490806001815401808255809150506001900390600052602060002001600090919091909150556007600083600001516001600160a01b03166001600160a01b031681526020019081526020016000206004016000549080600181540180825580915050600190039060005260206000200160009091909190915055600560008681526020019081526020016000206004015460056000878152602001908152602001600020600701541115611d9c57600085815260056020526040902060048101546007909101555b60008581526005602052604081206004015490036114d6576000858152600560209081526040808320546001600160a01b03168352600782528083208054825181850281018501909352808352849384938493611e309391929091908301828280156112a557602002820191906000526020600020908154815260200190600101908083116112915750505050508a610dc4565b60008b815260056020908152604080832060020154835260038252918290208054835181840281018401909452808452949850929650611ea693919291908301828280156112a557602002820191906000526020600020908154815260200190600101908083116112915750505050508a610dc4565b90925090508315611f87576000898152600560209081526040808320546001600160a01b03168352600790915290208054611ee3906001906145e2565b81548110611ef357611ef36145f5565b60009182526020808320909101548b8352600582526040808420546001600160a01b0316845260079092529120805485908110611f3257611f326145f5565b60009182526020808320909101929092558a8152600582526040808220546001600160a01b03168252600790925220805480611f7057611f7061460b565b600190038181906000526020600020016000905590555b81156114d1576000898152600560209081526040808320600201548352600390915290208054611fb9906001906145e2565b81548110611fc957611fc96145f5565b60009182526020808320909101548b835260058252604080842060020154845260039092529120805483908110612002576120026145f5565b60009182526020808320909101929092558a81526005825260408082206002015482526003909252208054806114ba576114ba61460b565b6001600160a01b038116600090815260066020908152604091829020600201805483518184028101840190945280845260609392830182828015610f115760200282019190600052602060002090815481526020019060010190808311610efd5750505050509050919050565b6001600160a01b038116600090815260086020908152604091829020600401805483518184028101840190945280845260609392830182828015610f115760200282019190600052602060002090815481526020019060010190808311610efd5750505050509050919050565b6060600061212183610af7565b600081815260026020908152604091829020805483518184028101840190945280845293945091929083018282801561217957602002820191906000526020600020905b815481526020019060010190808311612165575b5050505050915050919050565b6001600160a01b038116600090815260086020908152604091829020805483518184028101840190945280845260609392830182828015610f115760200282019190600052602060002090815481526020019060010190808311610efd5750505050509050919050565b600a60205260009081526040902080546122099061463a565b80601f01602080910402602001604051908101604052809291908181526020018280546122359061463a565b80156122825780601f1061225757610100808354040283529160200191612282565b820191906000526020600020905b81548152906001019060200180831161226557829003601f168201915b505050505081565b60008054908061229983614621565b9091555050600083815260056020818152604080842081516101408101835281546001600160a01b0390811680835260018401549583019590955260028301549382019390935260038201546060820152600482015460808201529381015460ff16151560a0850152600681015460c08501819052600782015460e0860152600882015461010086015260099091015461012085015293549293908516926346168630929133919061234b9089614674565b6040518563ffffffff1660e01b815260040161236a949392919061468b565b600060405180830381600087803b15801561238457600080fd5b505af1158015612398573d6000803e3d6000fd5b505050600085815260056020526040812060040180548693509091906123bf9084906145e2565b925050819055506000849050604051806101400160405280336001600160a01b03168152602001828152602001836040015181526020018581526020018581526020016000151581526020016000815260200160008152602001428152602001836101200151815250600560008054815260200190815260200160002060008201518160000160006101000a8154816001600160a01b0302191690836001600160a01b031602179055506020820151816001015560408201518160020155606082015181600301556080820151816004015560a08201518160050160006101000a81548160ff02191690831515021790555060c0820151816006015560e082015181600701556101008201518160080155610120820151816009015590505060076000336001600160a01b03166001600160a01b0316815260200190815260200160002060030160005490806001815401808255809150506001900390600052602060002001600090919091909150556006600083600001516001600160a01b03166001600160a01b0316815260200190815260200160002060020160005490806001815401808255809150506001900390600052602060002001600090919091909150556005600086815260200190815260200160002060040154600560008781526020019081526020016000206007015411156125d257600085815260056020526040902060048101546007909101555b60008581526005602052604081206004015490036114d6576000858152600560209081526040808320546001600160a01b031683526006825280832080548251818502810185019093528083528493849384936126669391929091908301828280156112a557602002820191906000526020600020908154815260200190600101908083116112915750505050508a610dc4565b60008b8152600560209081526040808320600290810154845282529182902080548351818402810184019094528084529498509296506126dc93919291908301828280156112a557602002820191906000526020600020908154815260200190600101908083116112915750505050508a610dc4565b909250905083156127bd576000898152600560209081526040808320546001600160a01b03168352600690915290208054612719906001906145e2565b81548110612729576127296145f5565b60009182526020808320909101548b8352600582526040808420546001600160a01b0316845260069092529120805485908110612768576127686145f5565b60009182526020808320909101929092558a8152600582526040808220546001600160a01b031682526006909252208054806127a6576127a661460b565b600190038181906000526020600020016000905590555b81156114d15760008981526005602090815260408083206002908101548452909152902080546127ef906001906145e2565b815481106127ff576127ff6145f5565b60009182526020808320909101548b835260058252604080842060029081015485529092529120805483908110612838576128386145f5565b60009182526020808320909101929092558a81526005825260408082206002908101548352909252208054806114ba576114ba61460b565b6060600061287d83610af7565b60008181526004602090815260409182902080548351818402810184019094528084529394509192908301828280156121795760200282019190600052602060002090815481526020019060010190808311612165575050505050915050919050565b6001600160a01b038116600090815260086020908152604091829020600101805483518184028101840190945280845260609392830182828015610f115760200282019190600052602060002090815481526020019060010190808311610efd5750505050509050919050565b6060600061295a83610af7565b60008181526003602090815260409182902080548351818402810184019094528084529394509192908301828280156121795760200282019190600052602060002090815481526020019060010190808311612165575050505050915050919050565b6001600160a01b038116600090815260086020908152604091829020600201805483518184028101840190945280845260609392830182828015610f115760200282019190600052602060002090815481526020019060010190808311610efd5750505050509050919050565b60018181548110612a3a57600080fd5b9060005260206000200160009150905080546122099061463a565b600081604051602001612a689190614713565b604051602081830303815290604052805190602001209050919050565b6001600160a01b038116600090815260096020908152604091829020600101805483518184028101840190945280845260609392830182828015610f115760200282019190600052602060002090815481526020019060010190808311610efd5750505050509050919050565b6001600160a01b038116600090815260076020908152604091829020600401805483518184028101840190945280845260609392830182828015610f115760200282019190600052602060002090815481526020019060010190808311610efd5750505050509050919050565b6001600160a01b038116600090815260086020908152604091829020600301805483518184028101840190945280845260609392830182828015610f115760200282019190600052602060002090815481526020019060010190808311610efd5750505050509050919050565b600060056000858152602001908152602001600020604051806101400160405290816000820160009054906101000a90046001600160a01b03166001600160a01b03166001600160a01b03168152602001600182015481526020016002820154815260200160038201548152602001600482015481526020016005820160009054906101000a900460ff16151515158152602001600682015481526020016007820154815260200160088201548152602001600982015481525050905060008160000151905060006005600084602001518152602001908152602001600020604051806101400160405290816000820160009054906101000a90046001600160a01b03166001600160a01b03166001600160a01b03168152602001600182015481526020016002820154815260200160038201548152602001600482015481526020016005820160009054906101000a900460ff161515151581526020016006820154815260200160078201548152602001600882015481526020016009820154815250509050600081600001519050846001600160a01b031663c4c89c818285898b6040518563ffffffff1660e01b8152600401612d8e94939291906146b4565b6020604051808303816000875af1158015612dad573d6000803e3d6000fd5b505050506040513d601f19601f82011682018060405250810190612dd191906146f1565b50600080600080612e5660076000876001600160a01b03166001600160a01b0316815260200190815260200160002060040180548060200260200160405190810160405280929190818152602001828054801561175e576020028201919060005260206000209081548152602001906001019080831161174a5750505050508c610dc4565b6001600160a01b0389166000908152600860209081526040918290206003018054835181840281018401909452808452949850929650612ecc939192919083018282801561175e576020028201919060005260206000209081548152602001906001019080831161174a5750505050508c610dc4565b9092509050838015612edb5750835b156119f6576001600160a01b03851660009081526007602052604090206004018054612f09906001906145e2565b81548110612f1957612f196145f5565b906000526020600020015460076000876001600160a01b03166001600160a01b031681526020019081526020016000206004018481548110612f5d57612f5d6145f5565b60009182526020808320909101929092556001600160a01b0387168152600790915260409020600401805480612f9557612f9561460b565b6000828152602080822083016000199081018390559092019092556001600160a01b038916825260089052604090206003018054612fd5906001906145e2565b81548110612fe557612fe56145f5565b906000526020600020015460086000896001600160a01b03166001600160a01b031681526020019081526020016000206003018481548110613029576130296145f5565b60009182526020808320909101929092556001600160a01b03891681526008909152604090206003018054806130615761306161460b565b6000828152602080822060001990840181018390559092019092556001600160a01b0389811683526008825260408084206002018054600181018255908552938390209093018e90558a5192518e815292169133917f91114d9b00a39d30565ac9db69f2ad2f767ba36ecd1fa5a65c4d2ce4f13fa40191016119ed565b6000858152600560205260408082206006810187905560090183905551819087907f6d97897343a1a8545b3799dc518f14c3e89c1761ef2a3280dccf03b0c5ec0f739061312c90879061439c565b60405180910390a26000878152600560208181526040808420928301805460ff1916600117905560079283018990553384529181529181902060020180548251818502810185019093528083526131b593830182828015610781576020028201919060005260206000209081548152602001906001019080831161076d57505050505088610dc4565b909250905081156108875733600090815260076020526040902060020180546131e0906001906145e2565b815481106131f0576131f06145f5565b600091825260208083209091015433835260079091526040909120600201805483908110613220576132206145f5565b600091825260208083209091019290925533815260079091526040902060020180548061324f5761324f61460b565b600082815260208082208301600019908101839055909201909255338252600781526040808320805460018181018355918552838520018b90558a84526005835281842060020154845260038352908320805491820181558352912001879055336001600160a01b03167f06d195a39cae44c0b031a2dc9a496102b4bd20ce290705703921389588231858886040516108b591815260200190565b60608160010361335c576001600160a01b03831660009081526006602090815260409182902080548351818402810184019094528084529091830182828015610c485760200282019190600052602060002090815481526020019060010190808311610c345750505050509050610dbe565b81600303610dad576001600160a01b03831660009081526006602090815260409182902060020180548351818402810184019094528084529091830182828015610c485760200282019190600052602060002090815481526020019060010190808311610c345750505050509050610dbe565b6001600160a01b038116600090815260076020908152604091829020600201805483518184028101840190945280845260609392830182828015610f115760200282019190600052602060002090815481526020019060010190808311610efd5750505050509050919050565b600060056000858152602001908152602001600020604051806101400160405290816000820160009054906101000a90046001600160a01b03166001600160a01b03166001600160a01b03168152602001600182015481526020016002820154815260200160038201548152602001600482015481526020016005820160009054906101000a900460ff16151515158152602001600682015481526020016007820154815260200160088201548152602001600982015481525050905060008160000151905060006005600084602001518152602001908152602001600020604051806101400160405290816000820160009054906101000a90046001600160a01b03166001600160a01b03166001600160a01b03168152602001600182015481526020016002820154815260200160038201548152602001600482015481526020016005820160009054906101000a900460ff161515151581526020016006820154815260200160078201548152602001600882015481526020016009820154815250509050600081600001519050846001600160a01b031663c4c89c818285898b6040518563ffffffff1660e01b81526004016135fe94939291906146b4565b6020604051808303816000875af115801561361d573d6000803e3d6000fd5b505050506040513d601f19601f8201168201806040525081019061364191906146f1565b506000806000806136c660086000876001600160a01b03166001600160a01b0316815260200190815260200160002060040180548060200260200160405190810160405280929190818152602001828054801561175e576020028201919060005260206000209081548152602001906001019080831161174a5750505050508c610dc4565b6001600160a01b038916600090815260096020908152604091829020600101805483518184028101840190945280845294985092965061373c939192919083018282801561175e576020028201919060005260206000209081548152602001906001019080831161174a5750505050508c610dc4565b909250905083801561374b5750835b156119f6576001600160a01b03851660009081526008602052604090206004018054613779906001906145e2565b81548110613789576137896145f5565b906000526020600020015460086000876001600160a01b03166001600160a01b0316815260200190815260200160002060040184815481106137cd576137cd6145f5565b60009182526020808320909101929092556001600160a01b03871681526008909152604090206004018054806138055761380561460b565b6000828152602080822083016000199081018390559092019092556001600160a01b03891682526009905260409020600190810180549091613846916145e2565b81548110613856576138566145f5565b906000526020600020015460096000896001600160a01b03166001600160a01b03168152602001908152602001600020600101848154811061389a5761389a6145f5565b60009182526020808320909101929092556001600160a01b03891681526009909152604090206001018054806138d2576138d261460b565b6001900381819060005260206000200160009055905587600001516001600160a01b0316336001600160a01b03167f91114d9b00a39d30565ac9db69f2ad2f767ba36ecd1fa5a65c4d2ce4f13fa4018d6040516119ed91815260200190565b6000816040516020016139449190614713565b604051602081830303815290604052805190602001208360405160200161396b9190614713565b6040516020818303038152906040528051906020012014905092915050565b60606000825167ffffffffffffffff8111156139a8576139a8613f13565b604051908082528060200260200182016040528015613a3a57816020015b613a2760405180610140016040528060006001600160a01b0316815260200160008152602001600081526020016000815260200160008152602001600015158152602001600081526020016000815260200160008152602001600081525090565b8152602001906001900390816139c65790505b50905060005b8351811015613b2f57600060056000868481518110613a6157613a616145f5565b602090810291909101810151825281810192909252604090810160002081516101408101835281546001600160a01b031681526001820154938101939093526002810154918301919091526003810154606083015260048101546080830152600581015460ff16151560a0830152600681015460c0830152600781015460e0830152600881015461010083015260098101546101208301528451909250849084908110613b1057613b106145f5565b6020026020010181905250508080613b2790614621565b915050613a40565b5092915050565b6001600160a01b038116600090815260096020908152604091829020805483518184028101840190945280845260609392830182828015610f115760200282019190600052602060002090815481526020019060010190808311610efd5750505050509050919050565b606081600103613c12576001600160a01b03831660009081526008602090815260409182902080548351818402810184019094528084529091830182828015610c485760200282019190600052602060002090815481526020019060010190808311610c345750505050509050610dbe565b81600203613c85576001600160a01b03831660009081526008602090815260409182902060020180548351818402810184019094528084529091830182828015610c485760200282019190600052602060002090815481526020019060010190808311610c345750505050509050610dbe565b81600303613cf8576001600160a01b03831660009081526008602090815260409182902060040180548351818402810184019094528084529091830182828015610c485760200282019190600052602060002090815481526020019060010190808311610c345750505050509050610dbe565b81600403610dad576001600160a01b03831660009081526008602090815260409182902060030180548351818402810184019094528084529091830182828015610c485760200282019190600052602060002090815481526020019060010190808311610c345750505050509050610dbe565b6001600160a01b038116600090815260076020908152604091829020805483518184028101840190945280845260609392830182828015610f115760200282019190600052602060002090815481526020019060010190808311610efd5750505050509050919050565b6001600160a01b038116600090815260076020908152604091829020600101805483518184028101840190945280845260609392830182828015610f115760200282019190600052602060002090815481526020019060010190808311610efd5750505050509050919050565b6001600160a01b038116600090815260066020908152604091829020600101805483518184028101840190945280845260609392830182828015610f115760200282019190600052602060002090815481526020019060010190808311610efd5750505050509050919050565b6000806000805b8551811015610e2057613ee2868281518110613ed457613ed46145f5565b602002602001015186613931565b15613ef35760019350809250610e20565b81613efd81614621565b9250508080613f0b90614621565b915050613eb6565b634e487b7160e01b600052604160045260246000fd5b604051601f8201601f1916810167ffffffffffffffff81118282101715613f5257613f52613f13565b604052919050565b600067ffffffffffffffff831115613f7457613f74613f13565b613f87601f8401601f1916602001613f29565b9050828152838383011115613f9b57600080fd5b828260208301376000602084830101529392505050565b600082601f830112613fc357600080fd5b613fd283833560208501613f5a565b9392505050565b600080600080600060a08688031215613ff157600080fd5b853594506020860135935060408601359250606086013567ffffffffffffffff81111561401d57600080fd5b61402988828901613fb2565b95989497509295608001359392505050565b60008060008060008060c0878903121561405457600080fd5b863567ffffffffffffffff8082111561406c57600080fd5b6140788a838b01613fb2565b975060208901359650604089013595506060890135945060808901359150808211156140a357600080fd5b506140b089828a01613fb2565b92505060a087013590509295509295509295565b6000602082840312156140d657600080fd5b813567ffffffffffffffff8111156140ed57600080fd5b6140f984828501613fb2565b949350505050565b80356001600160a01b038116811461411857600080fd5b919050565b6000806040838503121561413057600080fd5b61413983614101565b946020939093013593505050565b6020808252825182820181905260009190848201906040850190845b8181101561417f57835183529284019291840191600101614163565b50909695505050505050565b600067ffffffffffffffff8211156141a5576141a5613f13565b5060051b60200190565b600082601f8301126141c057600080fd5b813560206141d56141d08361418b565b613f29565b82815260059290921b840181019181810190868411156141f457600080fd5b8286015b8481101561420f57803583529183019183016141f8565b509695505050505050565b6000806040838503121561422d57600080fd5b823567ffffffffffffffff81111561424457600080fd5b614250858286016141af565b95602094909401359450505050565b60006020828403121561427157600080fd5b613fd282614101565b60008060006060848603121561428f57600080fd5b83359250602084013591506142a660408501614101565b90509250925092565b6000806000606084860312156142c457600080fd5b83359250602084013567ffffffffffffffff8111156142e257600080fd5b8401601f810186136142f357600080fd5b61430286823560208401613f5a565b9250506142a660408501614101565b600080600080600060a0868803121561432957600080fd5b505083359560208501359550604085013594606081013594506080013592509050565b60005b8381101561436757818101518382015260200161434f565b50506000910152565b6000815180845261438881602086016020860161434c565b601f01601f19169290920160200192915050565b602081526000613fd26020830184614370565b6000602082840312156143c157600080fd5b5035919050565b600080604083850312156143db57600080fd5b823567ffffffffffffffff808211156143f357600080fd5b6143ff86838701613fb2565b9350602085013591508082111561441557600080fd5b5061442285828601613fb2565b9150509250929050565b60006020828403121561443e57600080fd5b813567ffffffffffffffff81111561445557600080fd5b6140f9848285016141af565b602080825282518282018190526000919060409081850190868401855b8281101561450257815180516001600160a01b0316855286810151878601528581015186860152606080820151908601526080808201519086015260a08082015115159086015260c0808201519086015260e0808201519086015261010080820151908601526101209081015190850152610140909301929085019060010161447e565b5091979650505050505050565b6000806040838503121561452257600080fd5b823567ffffffffffffffff8082111561453a57600080fd5b818501915085601f83011261454e57600080fd5b8135602061455e6141d08361418b565b82815260059290921b8401810191818101908984111561457d57600080fd5b8286015b848110156145b5578035868111156145995760008081fd5b6145a78c86838b0101613fb2565b845250918301918301614581565b509650508601359250508082111561441557600080fd5b634e487b7160e01b600052601160045260246000fd5b81810381811115610dbe57610dbe6145cc565b634e487b7160e01b600052603260045260246000fd5b634e487b7160e01b600052603160045260246000fd5b600060018201614633576146336145cc565b5060010190565b600181811c9082168061464e57607f821691505b60208210810361466e57634e487b7160e01b600052602260045260246000fd5b50919050565b8082028115828204841417610dbe57610dbe6145cc565b6001600160a01b0394851681529290931660208301526040820152606081019190915260800190565b6001600160a01b038581168252841660208201526080604082018190526000906146e090830185614370565b905082606083015295945050505050565b60006020828403121561470357600080fd5b81518015158114613fd257600080fd5b6000825161472581846020870161434c565b919091019291505056fea26469706673582212202e9ca86aa7375fc13e3c9f3b845fbea2f570e7840ad5bc469c20f6772c33a4bb64736f6c63430008130033",
  "immutableReferences": {},
  "source": "// SPDX-License-Identifier: MIT\r\npragma solidity ^0.8.19;\r\npragma experimental ABIEncoderV2;\r\n\r\nimport \"./MyCoins.sol\";\r\n\r\ncontract SupplyChain {\r\n    event ProductLocation(uint indexed productId, string location);\r\n    event ProductAdded(address indexed owner, uint productId);\r\n    event ProductBuyed(address indexed owner, address indexed receiver, uint productId);\r\n\r\n    uint public finalID = 1000; \r\n    string[] public productTypes = [\r\n        \"Potatoes\", \"Tomatoes\", \"Strawberries\", \"Plums\", \"Peaches\", \"Eggplant\", \r\n        \"Cucumber\", \"Figs\", \"Onions\", \"Apples\", \"Cherries\", \"Broccoli\", \r\n        \"Grapes\", \"Kiwi\", \"Lemons\", \"Oranges\", \"Spinach\", \"Carrots\", \r\n        \"Lettuce\", \"Apricots\"\r\n    ];\r\n\r\n\r\n\r\n    \r\n\r\n    mapping(uint => productListData) farmersProductByType;\r\n    mapping(uint => productListData) wholesalersProductByType;\r\n    mapping(uint => productListData) retailersProductByType;\r\n    mapping(uint => ProductData) public productsData;\r\n    mapping(address => farmersData) farmers;\r\n    mapping(address => wholeSalerRetailerData) wholesalers;\r\n    mapping(address => wholeSalerRetailerData) retailers;\r\n    mapping(address => customerData) customers;\r\n    mapping(address => string) public usersJobType;\r\n\r\n    struct customerData {\r\n        uint[] history;\r\n        uint[] toReceive;\r\n    }\r\n\r\n    struct farmersData {\r\n        uint[] productForSale;\r\n        uint[] history;\r\n        uint[] toSend;\r\n    }\r\n\r\n    struct wholeSalerRetailerData {\r\n        uint[] productForSale;\r\n        uint[] history;\r\n        uint[] stock;\r\n        uint[] toReceive;\r\n        uint[] toSend;\r\n    }\r\n\r\n    struct productListData {\r\n        uint[] productList;\r\n    }\r\n\r\n    struct ProductData {\r\n        address owner;\r\n        uint parent;\r\n        uint productType;\r\n        uint amount;\r\n        uint amountRemaining;\r\n        bool isForSale;\r\n        uint price;\r\n        uint minQuantity;\r\n        uint date;\r\n        uint expiredDate; // New field added\r\n    }\r\n\r\n    function getHa(string memory str) public pure returns (bytes32) {\r\n        return keccak256(abi.encodePacked(str));\r\n    }\r\n\r\n    function indexInListProduct(string memory productType) public view returns (uint) {\r\n        bool bol;\r\n        uint ind;\r\n        (bol, ind) = retreiveIndexString(productTypes, productType);\r\n        return ind;\r\n    }\r\n\r\n    function farmerConfirmSending(uint productId, bytes memory signature, address coinAddress) public {\r\n        ProductData memory product = productsData[productId];\r\n        address wholeSalerOwner = product.owner;\r\n        ProductData memory parentProduct = productsData[product.parent];\r\n        address farmerBuyer = parentProduct.owner;\r\n        MyCoin(coinAddress).transfertWithSignature(farmerBuyer, wholeSalerOwner, signature, productId);\r\n\r\n        bool bol;\r\n        uint ind;\r\n        bool bool2;\r\n        uint ind2;\r\n        (bol, ind) = retreiveIndex(farmers[farmerBuyer].toSend, productId);\r\n        (bool2, ind2) = retreiveIndex(wholesalers[wholeSalerOwner].toReceive, productId);\r\n        if (bol && bol) {\r\n            farmers[farmerBuyer].toSend[ind] = farmers[farmerBuyer].toSend[farmers[farmerBuyer].toSend.length - 1];\r\n            farmers[farmerBuyer].toSend.pop(); \r\n            wholesalers[wholeSalerOwner].toReceive[ind] = wholesalers[wholeSalerOwner].toReceive[wholesalers[wholeSalerOwner].toReceive.length - 1];\r\n            wholesalers[wholeSalerOwner].toReceive.pop();\r\n            wholesalers[wholeSalerOwner].stock.push(productId);\r\n            emit ProductBuyed(msg.sender, product.owner, productId);  \r\n        }\r\n    }\r\n\r\n    function wholeSalerConfirmSending(uint productId, bytes memory signature, address coinAddress) public { \r\n        ProductData memory product = productsData[productId];\r\n        address RetailerOwner = product.owner;\r\n        ProductData memory parentProduct = productsData[product.parent];\r\n        address wholeSalerBuyer = parentProduct.owner;\r\n        MyCoin(coinAddress).transfertWithSignature(wholeSalerBuyer, RetailerOwner, signature, productId);\r\n\r\n        bool bol;\r\n        uint ind;\r\n        bool bool2;\r\n        uint ind2;\r\n        (bol, ind) = retreiveIndex(wholesalers[wholeSalerBuyer].toSend, productId);\r\n        (bool2, ind2) = retreiveIndex(retailers[RetailerOwner].toReceive, productId);\r\n        if (bol && bol) {\r\n            wholesalers[wholeSalerBuyer].toSend[ind] = wholesalers[wholeSalerBuyer].toSend[wholesalers[wholeSalerBuyer].toSend.length - 1];\r\n            wholesalers[wholeSalerBuyer].toSend.pop(); \r\n            retailers[RetailerOwner].toReceive[ind] = retailers[RetailerOwner].toReceive[retailers[RetailerOwner].toReceive.length - 1];\r\n            retailers[RetailerOwner].toReceive.pop();\r\n            retailers[RetailerOwner].stock.push(productId); \r\n            emit ProductBuyed(msg.sender, product.owner, productId);\r\n        }\r\n    }\r\n\r\n    function retailerConfirmSending(uint productId, bytes memory signature, address coinAddress) public { \r\n        ProductData memory product = productsData[productId];\r\n        address customerOwner = product.owner;\r\n        ProductData memory parentProduct = productsData[product.parent];\r\n        address retailerBuyer = parentProduct.owner;\r\n        MyCoin(coinAddress).transfertWithSignature(retailerBuyer, customerOwner, signature, productId);\r\n\r\n        bool bol;\r\n        uint ind;\r\n        bool bool2;\r\n        uint ind2;\r\n        (bol, ind) = retreiveIndex(retailers[retailerBuyer].toSend, productId);\r\n        (bool2, ind2) = retreiveIndex(customers[customerOwner].toReceive, productId);\r\n        if (bol && bol) {\r\n            retailers[retailerBuyer].toSend[ind] = retailers[retailerBuyer].toSend[retailers[retailerBuyer].toSend.length - 1];\r\n            retailers[retailerBuyer].toSend.pop(); \r\n            customers[customerOwner].toReceive[ind] = customers[customerOwner].toReceive[customers[customerOwner].toReceive.length - 1];\r\n            customers[customerOwner].toReceive.pop();\r\n            emit ProductBuyed(msg.sender, product.owner, productId); \r\n        }\r\n    }\r\n\r\n    function buyProductWholesaler(uint productId, uint amount, address coinAddress) public {\r\n        finalID++;\r\n        ProductData memory parentProduct = productsData[productId];\r\n        MyCoin(coinAddress).blockAmount(parentProduct.owner, msg.sender, finalID, amount * parentProduct.price);\r\n        productsData[productId].amountRemaining -= amount;\r\n        uint parent = productId;\r\n        productsData[finalID] = ProductData({\r\n            owner: msg.sender,\r\n            parent: parent,\r\n            productType: parentProduct.productType,\r\n            amount: amount,\r\n            amountRemaining: amount,\r\n            isForSale: false,\r\n            price: 0,\r\n            minQuantity: 0,\r\n            date: block.timestamp,\r\n            expiredDate: parentProduct.expiredDate // Copy the expiredDate from the parent product\r\n        });\r\n        wholesalers[msg.sender].toReceive.push(finalID);\r\n        farmers[parentProduct.owner].toSend.push(finalID);\r\n        if (productsData[productId].minQuantity > productsData[productId].amountRemaining) {\r\n            productsData[productId].minQuantity = productsData[productId].amountRemaining;\r\n        }\r\n        if (productsData[productId].amountRemaining == 0) {\r\n            bool bol;\r\n            uint ind;\r\n            bool bool2;\r\n            uint ind2;\r\n            (bol, ind) = retreiveIndex(farmers[productsData[productId].owner].productForSale, productId);\r\n            (bool2, ind2) = retreiveIndex(farmersProductByType[productsData[productId].productType].productList, productId);\r\n            if (bol) {\r\n                farmers[productsData[productId].owner].productForSale[ind] = farmers[productsData[productId].owner].productForSale[farmers[productsData[productId].owner].productForSale.length - 1];\r\n                farmers[productsData[productId].owner].productForSale.pop();\r\n            }\r\n            if (bool2) {\r\n                farmersProductByType[productsData[productId].productType].productList[ind2] = farmersProductByType[productsData[productId].productType].productList[farmersProductByType[productsData[productId].productType].productList.length - 1];\r\n                farmersProductByType[productsData[productId].productType].productList.pop();  \r\n            }\r\n        }    \r\n    }\r\n\r\n    function buyProductRetailer(uint productId, uint amount, address coinAddress) public {\r\n        finalID++;\r\n        ProductData memory parentProduct = productsData[productId];\r\n        MyCoin(coinAddress).blockAmount(parentProduct.owner, msg.sender, finalID, amount * parentProduct.price);\r\n        productsData[productId].amountRemaining -= amount;\r\n        uint parent = productId;\r\n        productsData[finalID] = ProductData({\r\n            owner: msg.sender,\r\n            parent: parent,\r\n            productType: parentProduct.productType,\r\n            amount: amount,\r\n            amountRemaining: amount,\r\n            isForSale: false,\r\n            price: 0,\r\n            minQuantity: 0,\r\n            date: block.timestamp,\r\n            expiredDate: parentProduct.expiredDate // Copy the expiredDate from the parent product\r\n        });\r\n        retailers[msg.sender].stock.push(finalID);\r\n        retailers[msg.sender].toReceive.push(finalID);\r\n        wholesalers[parentProduct.owner].toSend.push(finalID);\r\n        if (productsData[productId].minQuantity > productsData[productId].amountRemaining) {\r\n            productsData[productId].minQuantity = productsData[productId].amountRemaining;\r\n        }\r\n        if (productsData[productId].amountRemaining == 0) {\r\n            bool bol;\r\n            uint ind;\r\n            bool bool2;\r\n            uint ind2;\r\n            (bol, ind) = retreiveIndex(wholesalers[productsData[productId].owner].productForSale, productId);\r\n            (bool2, ind2) = retreiveIndex(wholesalersProductByType[productsData[productId].productType].productList, productId);\r\n            if (bol) {\r\n                wholesalers[productsData[productId].owner].productForSale[ind] = wholesalers[productsData[productId].owner].productForSale[wholesalers[productsData[productId].owner].productForSale.length - 1];\r\n                wholesalers[productsData[productId].owner].productForSale.pop();\r\n            }\r\n            if (bool2) {\r\n                wholesalersProductByType[productsData[productId].productType].productList[ind2] = wholesalersProductByType[productsData[productId].productType].productList[wholesalersProductByType[productsData[productId].productType].productList.length - 1];\r\n                wholesalersProductByType[productsData[productId].productType].productList.pop();  \r\n            }\r\n        }  \r\n    }\r\n\r\n    function buyProductCustomers(uint productId, uint amount, address coinAddress) public {\r\n        finalID++;\r\n        ProductData memory parentProduct = productsData[productId];\r\n        MyCoin(coinAddress).blockAmount(parentProduct.owner, msg.sender, finalID, amount * parentProduct.price);\r\n        productsData[productId].amountRemaining -= amount;\r\n        uint parent = productId;\r\n        productsData[finalID] = ProductData({\r\n            owner: msg.sender,\r\n            parent: parent,\r\n            productType: parentProduct.productType,\r\n            amount: amount,\r\n            amountRemaining: amount,\r\n            isForSale: false,\r\n            price: 0,\r\n            minQuantity: 0,\r\n            date: block.timestamp,\r\n            expiredDate: parentProduct.expiredDate // Copy the expiredDate from the parent product\r\n        });\r\n        customers[msg.sender].toReceive.push(finalID);\r\n        retailers[parentProduct.owner].toSend.push(finalID);\r\n        if (productsData[productId].minQuantity > productsData[productId].amountRemaining) {\r\n            productsData[productId].minQuantity = productsData[productId].amountRemaining;\r\n        }\r\n        if (productsData[productId].amountRemaining == 0) {\r\n            bool bol;\r\n            uint ind;\r\n            bool bool2;\r\n            uint ind2;\r\n            (bol, ind) = retreiveIndex(retailers[productsData[productId].owner].productForSale, productId);\r\n            (bool2, ind2) = retreiveIndex(retailersProductByType[productsData[productId].productType].productList, productId);\r\n            if (bol) {\r\n                retailers[productsData[productId].owner].productForSale[ind] = retailers[productsData[productId].owner].productForSale[retailers[productsData[productId].owner].productForSale.length - 1];\r\n                retailers[productsData[productId].owner].productForSale.pop();\r\n            }\r\n            if (bool2) {\r\n                retailersProductByType[productsData[productId].productType].productList[ind2] = retailersProductByType[productsData[productId].productType].productList[retailersProductByType[productsData[productId].productType].productList.length - 1];\r\n                retailersProductByType[productsData[productId].productType].productList.pop();  \r\n            }\r\n        }   \r\n    }\r\n\r\n    function farmersProductsListe(string memory pproductType) public view returns (uint[] memory) {\r\n        uint ind = indexInListProduct(pproductType);\r\n        return farmersProductByType[ind].productList;\r\n    }\r\n\r\n    function wholesalersProductsListe(string memory pproductType) public view returns (uint[] memory) {\r\n        uint ind = indexInListProduct(pproductType);\r\n        return wholesalersProductByType[ind].productList;\r\n    }\r\n\r\n    function retailersProductsListe(string memory pproductType) public view returns (uint[] memory) {\r\n        uint ind = indexInListProduct(pproductType);\r\n        return retailersProductByType[ind].productList;\r\n    }\r\n\r\n    function farmersProductsPersonal(address theFarmer, uint listType) public view returns (uint[] memory) {\r\n        if (listType == 1) {\r\n            return farmers[theFarmer].productForSale;\r\n        } else if (listType == 3) {\r\n            return farmers[theFarmer].toSend;\r\n        }\r\n        return new uint[](0) ;\r\n    }\r\n\r\n    function wholeSalerProductsPersonal(address wholeSaerAddr, uint listType) public view returns (uint[] memory) {\r\n        if (listType == 1) {\r\n            return wholesalers[wholeSaerAddr].productForSale;\r\n        } else if (listType == 2) {\r\n            return wholesalers[wholeSaerAddr].stock;\r\n        } else if (listType == 3) {\r\n            return wholesalers[wholeSaerAddr].toSend;\r\n        } else if (listType == 4) {\r\n            return wholesalers[wholeSaerAddr].toReceive;\r\n        }\r\n        return new uint[](0) ;\r\n    }\r\n\r\n    function retailerProductsPersonal(address retailerAddr, uint listType) public view returns (uint[] memory) {\r\n        if (listType == 1) {\r\n            return retailers[retailerAddr].productForSale;\r\n        } else if (listType == 2) {\r\n            return retailers[retailerAddr].stock;\r\n        } else if (listType == 3) {\r\n            return retailers[retailerAddr].toSend;\r\n        } else if (listType == 4) {\r\n            return retailers[retailerAddr].toReceive;\r\n        }\r\n        return new uint[](0) ;\r\n    }\r\n\r\n    function customerProductsPersonal(address theCustomer, uint listType) public view returns (uint[] memory) {\r\n        if (listType == 4) {\r\n            return customers[theCustomer].toReceive;\r\n        }\r\n        return new uint[](0) ;\r\n    }\r\n\r\n    function modifyProduct(uint productId, uint amount, uint price, uint minQuantity, uint expiredDate) public {\r\n        // require(msg.sender == productsData[productId].owner, \"You are not the owner\");\r\n        productsData[productId].price = price;\r\n        productsData[productId].amountRemaining = amount;\r\n        productsData[productId].minQuantity = minQuantity;\r\n        productsData[productId].expiredDate = expiredDate;\r\n    }\r\n\r\n    function farmerAddProduct(string memory pproductType, uint amount, uint price, uint minQuantity, string memory location, uint expiredDate) public {\r\n        finalID++;\r\n        uint ind = indexInListProduct(pproductType);\r\n        farmersProductByType[ind].productList.push(finalID);\r\n\r\n        productsData[finalID] = ProductData({\r\n            owner: msg.sender,\r\n            parent: 0,\r\n            productType: ind,\r\n            amount: amount,\r\n            amountRemaining: amount,\r\n            isForSale: true,\r\n            price: price,\r\n            minQuantity: minQuantity,\r\n            date: block.timestamp,\r\n            expiredDate: expiredDate\r\n        });\r\n        farmers[msg.sender].productForSale.push(finalID);\r\n        emit ProductAdded(msg.sender, finalID);\r\n        emit ProductLocation(finalID, location);\r\n    }\r\n    \r\n    function wholeSalerFromStockToSale(uint productId, uint price, uint minQuantity, string memory _location, uint expiredDate) public {\r\n        bool bol;\r\n        uint ind;\r\n        productsData[productId].price = price;\r\n        productsData[productId].expiredDate = expiredDate;\r\n        emit ProductLocation(productId, _location);\r\n\r\n        productsData[productId].isForSale = true;\r\n        productsData[productId].minQuantity = minQuantity;\r\n        (bol, ind) = retreiveIndex(wholesalers[msg.sender].stock, productId);\r\n        if (bol) {\r\n            wholesalers[msg.sender].stock[ind] = wholesalers[msg.sender].stock[wholesalers[msg.sender].stock.length - 1];\r\n            wholesalers[msg.sender].stock.pop();\r\n            wholesalers[msg.sender].productForSale.push(productId);\r\n            wholesalersProductByType[productsData[productId].productType].productList.push(productId);\r\n        }\r\n        emit ProductAdded(msg.sender, productId);\r\n    }\r\n function retailerFromStockToSale(uint productId,uint price,uint minQuantity,string memory _location, uint expiredDate)public {\r\n        bool bol;\r\n        uint ind;\r\n        productsData[productId].price = price;\r\n          productsData[productId].expiredDate = expiredDate;\r\n        emit  ProductLocation(productId, _location);\r\n        \r\n        productsData[productId].isForSale= true;\r\n        productsData[productId].minQuantity = minQuantity;\r\n        (bol,ind)=retreiveIndex(retailers[msg.sender].stock,productId);\r\n        if (bol){\r\n            retailers[msg.sender].stock[ind]=retailers[msg.sender].stock[retailers[msg.sender].stock.length-1];\r\n            retailers[msg.sender].stock.pop();\r\n            retailers[msg.sender].productForSale.push(productId);\r\n            retailersProductByType[productsData[productId].productType].productList.push(productId);\r\n        }\r\n\r\n        emit ProductAdded(msg.sender,productId);\r\n    }\r\n\r\n\r\n  function wholeSalerStock(address wholeSaerAddr) public view returns ( uint[] memory){\r\n        return wholesalers[wholeSaerAddr].stock ;\r\n    }\r\n\r\n    function wholeSalerToSend(address wholeSaerAddr) public view returns ( uint[] memory){\r\n        return wholesalers[wholeSaerAddr].toSend ;\r\n    }\r\n    function wholeSalerToReceive(address wholeSaerAddr) public view returns ( uint[] memory){\r\n        return wholesalers[wholeSaerAddr].toReceive ;\r\n    }\r\n    \r\n    function retailerToSend(address retailerAddr) public view returns ( uint[] memory){\r\n        return retailers[retailerAddr].toSend ;\r\n    }\r\n    function retailerToReceive(address retailerAddr) public view returns ( uint[] memory){\r\n        return retailers[retailerAddr].toReceive ;\r\n    }\r\n     function customersToReceive(address theCustomer) public view returns ( uint[] memory){\r\n        return customers[theCustomer].toReceive;\r\n    }\r\n   \r\n    function wholeSalerproductsForSale(address wholeSaerAddr) public view returns ( uint[] memory){\r\n        return wholesalers[wholeSaerAddr].productForSale ;\r\n    }\r\n     function wholeSalerHistory(address wholeSaerAddr) public view returns ( uint[] memory){\r\n        return wholesalers[wholeSaerAddr].history ;\r\n    }\r\n    function retailerStock(address retailerAddr) public view returns ( uint[] memory){\r\n        return retailers[retailerAddr].stock ;\r\n    }\r\n    function retailersproductsForSale(address retailerAddr) public view returns ( uint[] memory){\r\n        return retailers[retailerAddr].productForSale ;\r\n    }\r\n    function retailerHistory(address retailerAddr) public view returns ( uint[] memory){\r\n        return retailers[retailerAddr].history ;\r\n    }\r\n    function farmersProductsForSale(address theFarmer) public view returns ( uint[] memory){\r\n        return farmers[theFarmer].productForSale;\r\n    }\r\n    function farmersHistory(address theFarmer) public view returns ( uint[] memory){\r\n        return farmers[theFarmer].history;\r\n    }\r\n     function farmersToSend(address theFarmer) public view returns ( uint[] memory){\r\n        return farmers[theFarmer].toSend;\r\n    }\r\n    function customersHistory(address theCustomer) public view returns ( uint[] memory){\r\n        return customers[theCustomer].history;\r\n    }\r\n   \r\n\r\n\r\n    function retreiveIndex(uint[] memory list, uint value) public pure returns (bool b, uint u) {\r\n        uint j = 0;\r\n        for (uint i = 0; i < list.length; i++) {\r\n            if (list[i] == value) {\r\n                b = true;\r\n                u = i;\r\n                break;\r\n            }  \r\n            j++;\r\n        }\r\n        if (j == list.length) {\r\n            b = false;\r\n            u = j;\r\n        }\r\n    }\r\n\r\n    function compareStrings(string memory a, string memory b) public pure returns (bool) {\r\n        return (keccak256(abi.encodePacked((a))) == keccak256(abi.encodePacked((b))));\r\n    }\r\n\r\n    function retreiveIndexString(string[] memory list, string memory value) public pure returns (bool b, uint u) {\r\n        uint j = 0;\r\n        for (uint i = 0; i < list.length; i++) {\r\n            if (compareStrings(list[i], value)) {\r\n                b = true;\r\n                u = i;\r\n                break;\r\n            }  \r\n            j++;\r\n        }\r\n        if (j == list.length) {\r\n            b = false;\r\n            u = j;\r\n        }\r\n    }\r\n\r\n    function productDatafromList(uint[] memory _productsId) public view returns (ProductData[] memory) {\r\n        ProductData[] memory productssData = new ProductData[](_productsId.length);\r\n        for (uint i = 0; i < _productsId.length; i++) {\r\n            ProductData storage productProgress = productsData[_productsId[i]];\r\n            productssData[i] = productProgress;\r\n        }\r\n        return productssData;\r\n    }\r\n}\r\n",
  "sourcePath": "C:\\Users\\Aimen Haddad\\Desktop\\Green trace\\smart-contrat\\contracts\\SupplyChain.sol",
  "compiler": {
    "name": "solc",
    "version": "0.8.19+commit.7dd6d404.Emscripten.clang"
  },
  "schemaVersion": "3.4.16",
  "updatedAt": "2024-10-16T13:45:39.483Z",
  "devdoc": {
    "kind": "dev",
    "methods": {},
    "version": 1
  },
  "userdoc": {
    "kind": "user",
    "methods": {},
    "version": 1
  }
}